{"contracts/deposit_contract.sol":{"DepositContract":{"abi":[{"inputs":[],"stateMutability":"nonpayable","type":"constructor"},{"anonymous":false,"inputs":[{"indexed":false,"internalType":"bytes","name":"pubkey","type":"bytes"},{"indexed":false,"internalType":"bytes","name":"withdrawal_credentials","type":"bytes"},{"indexed":false,"internalType":"bytes","name":"amount","type":"bytes"},{"indexed":false,"internalType":"bytes","name":"signature","type":"bytes"},{"indexed":false,"internalType":"bytes","name":"index","type":"bytes"}],"name":"DepositEvent","type":"event"},{"inputs":[{"internalType":"bytes","name":"pubkey","type":"bytes"},{"internalType":"bytes","name":"withdrawal_credentials","type":"bytes"},{"internalType":"bytes","name":"signature","type":"bytes"},{"internalType":"bytes32","name":"deposit_data_root","type":"bytes32"}],"name":"deposit","outputs":[],"stateMutability":"payable","type":"function"},{"inputs":[],"name":"get_deposit_count","outputs":[{"internalType":"bytes","name":"","type":"bytes"}],"stateMutability":"view","type":"function"},{"inputs":[],"name":"get_deposit_root","outputs":[{"internalType":"bytes32","name":"","type":"bytes32"}],"stateMutability":"view","type":"function"},{"inputs":[{"internalType":"bytes4","name":"interfaceId","type":"bytes4"}],"name":"supportsInterface","outputs":[{"internalType":"bool","name":"","type":"bool"}],"stateMutability":"pure","type":"function"}],"evm":{"bytecode":{"linkReferences":{},"object":"60806040523480156200001157600080fd5b5060005b6001602062000025919062000155565b811015620001155760026021826020811062000046576200004562000190565b5b0154602183602081106200005f576200005e62000190565b5b015460405160200162000074929190620001ee565b604051602081830303815290604052604051620000929190620002a1565b602060405180830381855afa158015620000b0573d6000803e3d6000fd5b5050506040513d601f19601f82011682018060405250810190620000d59190620002f0565b6021600183620000e6919062000322565b60208110620000fa57620000f962000190565b5b018190555080806200010c906200037f565b91505062000015565b50620003cd565b6000819050919050565b7f4e487b7100000000000000000000000000000000000000000000000000000000600052601160045260246000fd5b600062000162826200011c565b91506200016f836200011c565b92508282101562000185576200018462000126565b5b828203905092915050565b7f4e487b7100000000000000000000000000000000000000000000000000000000600052603260045260246000fd5b6000819050919050565b6000819050919050565b620001e8620001e282620001bf565b620001c9565b82525050565b6000620001fc8285620001d3565b6020820191506200020e8284620001d3565b6020820191508190509392505050565b600081519050919050565b600081905092915050565b60005b838110156200025457808201518184015260208101905062000237565b8381111562000264576000848401525b50505050565b600062000277826200021e565b62000283818562000229565b93506200029581856020860162000234565b80840191505092915050565b6000620002af82846200026a565b915081905092915050565b600080fd5b620002ca81620001bf565b8114620002d657600080fd5b50565b600081519050620002ea81620002bf565b92915050565b600060208284031215620003095762000308620002ba565b5b60006200031984828501620002d9565b91505092915050565b60006200032f826200011c565b91506200033c836200011c565b9250827fffffffffffffffffffffffffffffffffffffffffffffffffffffffffffffffff0382111562000374576200037362000126565b5b828201905092915050565b60006200038c826200011c565b91507fffffffffffffffffffffffffffffffffffffffffffffffffffffffffffffffff821415620003c257620003c162000126565b5b600182019050919050565b611d9180620003dd6000396000f3fe60806040526004361061003f5760003560e01c806301ffc9a7146100445780632289511814610081578063621fd1301461009d578063c5f2892f146100c8575b600080fd5b34801561005057600080fd5b5061006b60048036038101906100669190610e99565b6100f3565b6040516100789190610ee1565b60405180910390f35b61009b60048036038101906100969190610f97565b6101c5565b005b3480156100a957600080fd5b506100b261090b565b6040516100bf91906110f9565b60405180910390f35b3480156100d457600080fd5b506100dd61091d565b6040516100ea919061112a565b60405180910390f35b60007f01ffc9a7000000000000000000000000000000000000000000000000000000007bffffffffffffffffffffffffffffffffffffffffffffffffffffffff1916827bffffffffffffffffffffffffffffffffffffffffffffffffffffffff191614806101be57507f85640907000000000000000000000000000000000000000000000000000000007bffffffffffffffffffffffffffffffffffffffffffffffffffffffff1916827bffffffffffffffffffffffffffffffffffffffffffffffffffffffff1916145b9050919050565b6030878790501461020b576040517f08c379a0000000000000000000000000000000000000000000000000000000008152600401610202906111c8565b60405180910390fd5b60208585905014610251576040517f08c379a00000000000000000000000000000000000000000000000000000000081526004016102489061125a565b60405180910390fd5b60608383905014610297576040517f08c379a000000000000000000000000000000000000000000000000000000000815260040161028e906112ec565b60405180910390fd5b670de0b6b3a76400003410156102e2576040517f08c379a00000000000000000000000000000000000000000000000000000000081526004016102d99061137e565b60405180910390fd5b6000633b9aca00346102f491906113d7565b14610334576040517f08c379a000000000000000000000000000000000000000000000000000000000815260040161032b9061147a565b60405180910390fd5b6000633b9aca003461034691906114c9565b905067ffffffffffffffff8016811115610395576040517f08c379a000000000000000000000000000000000000000000000000000000000815260040161038c9061156c565b60405180910390fd5b60006103a082610aff565b90507f649bbc62d0e31342afea4e5cd82d4049e7e1ee912fc0889aa790803be39038c589898989858a8a6103d5602054610aff565b6040516103e99897969594939291906115c8565b60405180910390a1600060028a8a600060801b60405160200161040e939291906116c1565b60405160208183030381529060405260405161042a919061171c565b602060405180830381855afa158015610447573d6000803e3d6000fd5b5050506040513d601f19601f8201168201806040525081019061046a9190611748565b9050600060028088886000906040926104859392919061177f565b6040516020016104969291906117ba565b6040516020818303038152906040526040516104b2919061171c565b602060405180830381855afa1580156104cf573d6000803e3d6000fd5b5050506040513d601f19601f820116820180604052508101906104f29190611748565b6002898960409080926105079392919061177f565b6000801b60405160200161051d939291906117f4565b604051602081830303815290604052604051610539919061171c565b602060405180830381855afa158015610556573d6000803e3d6000fd5b5050506040513d601f19601f820116820180604052508101906105799190611748565b60405160200161058a92919061181e565b6040516020818303038152906040526040516105a6919061171c565b602060405180830381855afa1580156105c3573d6000803e3d6000fd5b5050506040513d601f19601f820116820180604052508101906105e69190611748565b90506000600280848c8c6040516020016106029392919061184a565b60405160208183030381529060405260405161061e919061171c565b602060405180830381855afa15801561063b573d6000803e3d6000fd5b5050506040513d601f19601f8201168201806040525081019061065e9190611748565b600286600060401b86604051602001610679939291906118c1565b604051602081830303815290604052604051610695919061171c565b602060405180830381855afa1580156106b2573d6000803e3d6000fd5b5050506040513d601f19601f820116820180604052508101906106d59190611748565b6040516020016106e692919061181e565b604051602081830303815290604052604051610702919061171c565b602060405180830381855afa15801561071f573d6000803e3d6000fd5b5050506040513d601f19601f820116820180604052508101906107429190611748565b9050858114610786576040517f08c379a000000000000000000000000000000000000000000000000000000000815260040161077d90611992565b60405180910390fd5b6001602060026107969190611ae5565b6107a09190611b30565b602054106107e3576040517f08c379a00000000000000000000000000000000000000000000000000000000081526004016107da90611bd6565b60405180910390fd5b6001602060008282546107f69190611bf6565b925050819055506000602054905060005b60208110156108eb57600180831614156108415782600082602081106108305761082f611c4c565b5b018190555050505050505050610902565b60026000826020811061085757610856611c4c565b5b01548460405160200161086b92919061181e565b604051602081830303815290604052604051610887919061171c565b602060405180830381855afa1580156108a4573d6000803e3d6000fd5b5050506040513d601f19601f820116820180604052508101906108c79190611748565b92506002826108d691906114c9565b915080806108e390611c7b565b915050610807565b5060006108fb576108fa611cc4565b5b5050505050505b50505050505050565b6060610918602054610aff565b905090565b6000806000602054905060005b6020811015610a7657600180831614156109cb5760026000826020811061095457610953611c4c565b5b01548460405160200161096892919061181e565b604051602081830303815290604052604051610984919061171c565b602060405180830381855afa1580156109a1573d6000803e3d6000fd5b5050506040513d601f19601f820116820180604052508101906109c49190611748565b9250610a54565b600283602183602081106109e2576109e1611c4c565b5b01546040516020016109f592919061181e565b604051602081830303815290604052604051610a11919061171c565b602060405180830381855afa158015610a2e573d6000803e3d6000fd5b5050506040513d601f19601f82011682018060405250810190610a519190611748565b92505b600282610a6191906114c9565b91508080610a6e90611c7b565b91505061092a565b50600282610a85602054610aff565b600060401b604051602001610a9c93929190611cf3565b604051602081830303815290604052604051610ab8919061171c565b602060405180830381855afa158015610ad5573d6000803e3d6000fd5b5050506040513d601f19601f82011682018060405250810190610af89190611748565b9250505090565b6060600867ffffffffffffffff811115610b1c57610b1b611d2c565b5b6040519080825280601f01601f191660200182016040528015610b4e5781602001600182028036833780820191505090505b50905060008260c01b905080600760088110610b6d57610b6c611c4c565b5b1a60f81b82600081518110610b8557610b84611c4c565b5b60200101907effffffffffffffffffffffffffffffffffffffffffffffffffffffffffffff1916908160001a90535080600660088110610bc857610bc7611c4c565b5b1a60f81b82600181518110610be057610bdf611c4c565b5b60200101907effffffffffffffffffffffffffffffffffffffffffffffffffffffffffffff1916908160001a90535080600560088110610c2357610c22611c4c565b5b1a60f81b82600281518110610c3b57610c3a611c4c565b5b60200101907effffffffffffffffffffffffffffffffffffffffffffffffffffffffffffff1916908160001a90535080600460088110610c7e57610c7d611c4c565b5b1a60f81b82600381518110610c9657610c95611c4c565b5b60200101907effffffffffffffffffffffffffffffffffffffffffffffffffffffffffffff1916908160001a90535080600360088110610cd957610cd8611c4c565b5b1a60f81b82600481518110610cf157610cf0611c4c565b5b60200101907effffffffffffffffffffffffffffffffffffffffffffffffffffffffffffff1916908160001a90535080600260088110610d3457610d33611c4c565b5b1a60f81b82600581518110610d4c57610d4b611c4c565b5b60200101907effffffffffffffffffffffffffffffffffffffffffffffffffffffffffffff1916908160001a90535080600160088110610d8f57610d8e611c4c565b5b1a60f81b82600681518110610da757610da6611c4c565b5b60200101907effffffffffffffffffffffffffffffffffffffffffffffffffffffffffffff1916908160001a90535080600060088110610dea57610de9611c4c565b5b1a60f81b82600781518110610e0257610e01611c4c565b5b60200101907effffffffffffffffffffffffffffffffffffffffffffffffffffffffffffff1916908160001a90535050919050565b600080fd5b600080fd5b60007fffffffff0000000000000000000000000000000000000000000000000000000082169050919050565b610e7681610e41565b8114610e8157600080fd5b50565b600081359050610e9381610e6d565b92915050565b600060208284031215610eaf57610eae610e37565b5b6000610ebd84828501610e84565b91505092915050565b60008115159050919050565b610edb81610ec6565b82525050565b6000602082019050610ef66000830184610ed2565b92915050565b600080fd5b600080fd5b600080fd5b60008083601f840112610f2157610f20610efc565b5b8235905067ffffffffffffffff811115610f3e57610f3d610f01565b5b602083019150836001820283011115610f5a57610f59610f06565b5b9250929050565b6000819050919050565b610f7481610f61565b8114610f7f57600080fd5b50565b600081359050610f9181610f6b565b92915050565b60008060008060008060006080888a031215610fb657610fb5610e37565b5b600088013567ffffffffffffffff811115610fd457610fd3610e3c565b5b610fe08a828b01610f0b565b9750975050602088013567ffffffffffffffff81111561100357611002610e3c565b5b61100f8a828b01610f0b565b9550955050604088013567ffffffffffffffff81111561103257611031610e3c565b5b61103e8a828b01610f0b565b935093505060606110518a828b01610f82565b91505092959891949750929550565b600081519050919050565b600082825260208201905092915050565b60005b8381101561109a57808201518184015260208101905061107f565b838111156110a9576000848401525b50505050565b6000601f19601f8301169050919050565b60006110cb82611060565b6110d5818561106b565b93506110e581856020860161107c565b6110ee816110af565b840191505092915050565b6000602082019050818103600083015261111381846110c0565b905092915050565b61112481610f61565b82525050565b600060208201905061113f600083018461111b565b92915050565b600082825260208201905092915050565b7f4465706f736974436f6e74726163743a20696e76616c6964207075626b65792060008201527f6c656e6774680000000000000000000000000000000000000000000000000000602082015250565b60006111b2602683611145565b91506111bd82611156565b604082019050919050565b600060208201905081810360008301526111e1816111a5565b9050919050565b7f4465706f736974436f6e74726163743a20696e76616c6964207769746864726160008201527f77616c5f63726564656e7469616c73206c656e67746800000000000000000000602082015250565b6000611244603683611145565b915061124f826111e8565b604082019050919050565b6000602082019050818103600083015261127381611237565b9050919050565b7f4465706f736974436f6e74726163743a20696e76616c6964207369676e61747560008201527f7265206c656e6774680000000000000000000000000000000000000000000000602082015250565b60006112d6602983611145565b91506112e18261127a565b604082019050919050565b60006020820190508181036000830152611305816112c9565b9050919050565b7f4465706f736974436f6e74726163743a206465706f7369742076616c7565207460008201527f6f6f206c6f770000000000000000000000000000000000000000000000000000602082015250565b6000611368602683611145565b91506113738261130c565b604082019050919050565b600060208201905081810360008301526113978161135b565b9050919050565b6000819050919050565b7f4e487b7100000000000000000000000000000000000000000000000000000000600052601260045260246000fd5b60006113e28261139e565b91506113ed8361139e565b9250826113fd576113fc6113a8565b5b828206905092915050565b7f4465706f736974436f6e74726163743a206465706f7369742076616c7565206e60008201527f6f74206d756c7469706c65206f66206777656900000000000000000000000000602082015250565b6000611464603383611145565b915061146f82611408565b604082019050919050565b6000602082019050818103600083015261149381611457565b9050919050565b7f4e487b7100000000000000000000000000000000000000000000000000000000600052601160045260246000fd5b60006114d48261139e565b91506114df8361139e565b9250826114ef576114ee6113a8565b5b828204905092915050565b7f4465706f736974436f6e74726163743a206465706f7369742076616c7565207460008201527f6f6f206869676800000000000000000000000000000000000000000000000000602082015250565b6000611556602783611145565b9150611561826114fa565b604082019050919050565b6000602082019050818103600083015261158581611549565b9050919050565b82818337600083830152505050565b60006115a7838561106b565b93506115b483858461158c565b6115bd836110af565b840190509392505050565b600060a08201905081810360008301526115e3818a8c61159b565b905081810360208301526115f881888a61159b565b9050818103604083015261160c81876110c0565b9050818103606083015261162181858761159b565b9050818103608083015261163581846110c0565b90509998505050505050505050565b600081905092915050565b600061165b8385611644565b935061166883858461158c565b82840190509392505050565b60007fffffffffffffffffffffffffffffffff0000000000000000000000000000000082169050919050565b6000819050919050565b6116bb6116b682611674565b6116a0565b82525050565b60006116ce82858761164f565b91506116da82846116aa565b601082019150819050949350505050565b60006116f682611060565b6117008185611644565b935061171081856020860161107c565b80840191505092915050565b600061172882846116eb565b915081905092915050565b60008151905061174281610f6b565b92915050565b60006020828403121561175e5761175d610e37565b5b600061176c84828501611733565b91505092915050565b600080fd5b600080fd5b6000808585111561179357611792611775565b5b838611156117a4576117a361177a565b5b6001850283019150848603905094509492505050565b60006117c782848661164f565b91508190509392505050565b6000819050919050565b6117ee6117e982610f61565b6117d3565b82525050565b600061180182858761164f565b915061180d82846117dd565b602082019150819050949350505050565b600061182a82856117dd565b60208201915061183a82846117dd565b6020820191508190509392505050565b600061185682866117dd565b60208201915061186782848661164f565b9150819050949350505050565b60007fffffffffffffffffffffffffffffffffffffffffffffffff000000000000000082169050919050565b6000819050919050565b6118bb6118b682611874565b6118a0565b82525050565b60006118cd82866116eb565b91506118d982856118aa565b6018820191506118e982846117dd565b602082019150819050949350505050565b7f4465706f736974436f6e74726163743a207265636f6e7374727563746564204460008201527f65706f7369744461746120646f6573206e6f74206d6174636820737570706c6960208201527f6564206465706f7369745f646174615f726f6f74000000000000000000000000604082015250565b600061197c605483611145565b9150611987826118fa565b606082019050919050565b600060208201905081810360008301526119ab8161196f565b9050919050565b60008160011c9050919050565b6000808291508390505b6001851115611a09578086048111156119e5576119e461149a565b5b60018516156119f45780820291505b8081029050611a02856119b2565b94506119c9565b94509492505050565b600082611a225760019050611ade565b81611a305760009050611ade565b8160018114611a465760028114611a5057611a7f565b6001915050611ade565b60ff841115611a6257611a6161149a565b5b8360020a915084821115611a7957611a7861149a565b5b50611ade565b5060208310610133831016604e8410600b8410161715611ab45782820a905083811115611aaf57611aae61149a565b5b611ade565b611ac184848460016119bf565b92509050818404811115611ad857611ad761149a565b5b81810290505b9392505050565b6000611af08261139e565b9150611afb8361139e565b9250611b287fffffffffffffffffffffffffffffffffffffffffffffffffffffffffffffffff8484611a12565b905092915050565b6000611b3b8261139e565b9150611b468361139e565b925082821015611b5957611b5861149a565b5b828203905092915050565b7f4465706f736974436f6e74726163743a206d65726b6c6520747265652066756c60008201527f6c00000000000000000000000000000000000000000000000000000000000000602082015250565b6000611bc0602183611145565b9150611bcb82611b64565b604082019050919050565b60006020820190508181036000830152611bef81611bb3565b9050919050565b6000611c018261139e565b9150611c0c8361139e565b9250827fffffffffffffffffffffffffffffffffffffffffffffffffffffffffffffffff03821115611c4157611c4061149a565b5b828201905092915050565b7f4e487b7100000000000000000000000000000000000000000000000000000000600052603260045260246000fd5b6000611c868261139e565b91507fffffffffffffffffffffffffffffffffffffffffffffffffffffffffffffffff821415611cb957611cb861149a565b5b600182019050919050565b7f4e487b7100000000000000000000000000000000000000000000000000000000600052600160045260246000fd5b6000611cff82866117dd565b602082019150611d0f82856116eb565b9150611d1b82846118aa565b601882019150819050949350505050565b7f4e487b7100000000000000000000000000000000000000000000000000000000600052604160045260246000fdfea264697066735822122074d28dfd3c6e869430bffe3e61ec85077599fd850180394bfe6d2f1cd2aecaa464736f6c63430008090033","opcodes":"PUSH1 0x80 PUSH1 0x40 MSTORE CALLVALUE DUP1 ISZERO PUSH3 0x11 JUMPI PUSH1 0x0 DUP1 REVERT JUMPDEST POP PUSH1 0x0 JUMPDEST PUSH1 0x1 PUSH1 0x20 PUSH3 0x25 SWAP2 SWAP1 PUSH3 0x155 JUMP JUMPDEST DUP2 LT ISZERO PUSH3 0x115 JUMPI PUSH1 0x2 PUSH1 0x21 DUP3 PUSH1 0x20 DUP2 LT PUSH3 0x46 JUMPI PUSH3 0x45 PUSH3 0x190 JUMP JUMPDEST JUMPDEST ADD SLOAD PUSH1 0x21 DUP4 PUSH1 0x20 DUP2 LT PUSH3 0x5F JUMPI PUSH3 0x5E PUSH3 0x190 JUMP JUMPDEST JUMPDEST ADD SLOAD PUSH1 0x40 MLOAD PUSH1 0x20 ADD PUSH3 0x74 SWAP3 SWAP2 SWAP1 PUSH3 0x1EE JUMP JUMPDEST PUSH1 0x40 MLOAD PUSH1 0x20 DUP2 DUP4 SUB SUB DUP2 MSTORE SWAP1 PUSH1 0x40 MSTORE PUSH1 0x40 MLOAD PUSH3 0x92 SWAP2 SWAP1 PUSH3 0x2A1 JUMP JUMPDEST PUSH1 0x20 PUSH1 0x40 MLOAD DUP1 DUP4 SUB DUP2 DUP6 GAS STATICCALL ISZERO DUP1 ISZERO PUSH3 0xB0 JUMPI RETURNDATASIZE PUSH1 0x0 DUP1 RETURNDATACOPY RETURNDATASIZE PUSH1 0x0 REVERT JUMPDEST POP POP POP PUSH1 0x40 MLOAD RETURNDATASIZE PUSH1 0x1F NOT PUSH1 0x1F DUP3 ADD AND DUP3 ADD DUP1 PUSH1 0x40 MSTORE POP DUP2 ADD SWAP1 PUSH3 0xD5 SWAP2 SWAP1 PUSH3 0x2F0 JUMP JUMPDEST PUSH1 0x21 PUSH1 0x1 DUP4 PUSH3 0xE6 SWAP2 SWAP1 PUSH3 0x322 JUMP JUMPDEST PUSH1 0x20 DUP2 LT PUSH3 0xFA JUMPI PUSH3 0xF9 PUSH3 0x190 JUMP JUMPDEST JUMPDEST ADD DUP2 SWAP1 SSTORE POP DUP1 DUP1 PUSH3 0x10C SWAP1 PUSH3 0x37F JUMP JUMPDEST SWAP2 POP POP PUSH3 0x15 JUMP JUMPDEST POP PUSH3 0x3CD JUMP JUMPDEST PUSH1 0x0 DUP2 SWAP1 POP SWAP2 SWAP1 POP JUMP JUMPDEST PUSH32 0x4E487B7100000000000000000000000000000000000000000000000000000000 PUSH1 0x0 MSTORE PUSH1 0x11 PUSH1 0x4 MSTORE PUSH1 0x24 PUSH1 0x0 REVERT JUMPDEST PUSH1 0x0 PUSH3 0x162 DUP3 PUSH3 0x11C JUMP JUMPDEST SWAP2 POP PUSH3 0x16F DUP4 PUSH3 0x11C JUMP JUMPDEST SWAP3 POP DUP3 DUP3 LT ISZERO PUSH3 0x185 JUMPI PUSH3 0x184 PUSH3 0x126 JUMP JUMPDEST JUMPDEST DUP3 DUP3 SUB SWAP1 POP SWAP3 SWAP2 POP POP JUMP JUMPDEST PUSH32 0x4E487B7100000000000000000000000000000000000000000000000000000000 PUSH1 0x0 MSTORE PUSH1 0x32 PUSH1 0x4 MSTORE PUSH1 0x24 PUSH1 0x0 REVERT JUMPDEST PUSH1 0x0 DUP2 SWAP1 POP SWAP2 SWAP1 POP JUMP JUMPDEST PUSH1 0x0 DUP2 SWAP1 POP SWAP2 SWAP1 POP JUMP JUMPDEST PUSH3 0x1E8 PUSH3 0x1E2 DUP3 PUSH3 0x1BF JUMP JUMPDEST PUSH3 0x1C9 JUMP JUMPDEST DUP3 MSTORE POP POP JUMP JUMPDEST PUSH1 0x0 PUSH3 0x1FC DUP3 DUP6 PUSH3 0x1D3 JUMP JUMPDEST PUSH1 0x20 DUP3 ADD SWAP2 POP PUSH3 0x20E DUP3 DUP5 PUSH3 0x1D3 JUMP JUMPDEST PUSH1 0x20 DUP3 ADD SWAP2 POP DUP2 SWAP1 POP SWAP4 SWAP3 POP POP POP JUMP JUMPDEST PUSH1 0x0 DUP2 MLOAD SWAP1 POP SWAP2 SWAP1 POP JUMP JUMPDEST PUSH1 0x0 DUP2 SWAP1 POP SWAP3 SWAP2 POP POP JUMP JUMPDEST PUSH1 0x0 JUMPDEST DUP4 DUP2 LT ISZERO PUSH3 0x254 JUMPI DUP1 DUP3 ADD MLOAD DUP2 DUP5 ADD MSTORE PUSH1 0x20 DUP2 ADD SWAP1 POP PUSH3 0x237 JUMP JUMPDEST DUP4 DUP2 GT ISZERO PUSH3 0x264 JUMPI PUSH1 0x0 DUP5 DUP5 ADD MSTORE JUMPDEST POP POP POP POP JUMP JUMPDEST PUSH1 0x0 PUSH3 0x277 DUP3 PUSH3 0x21E JUMP JUMPDEST PUSH3 0x283 DUP2 DUP6 PUSH3 0x229 JUMP JUMPDEST SWAP4 POP PUSH3 0x295 DUP2 DUP6 PUSH1 0x20 DUP7 ADD PUSH3 0x234 JUMP JUMPDEST DUP1 DUP5 ADD SWAP2 POP POP SWAP3 SWAP2 POP POP JUMP JUMPDEST PUSH1 0x0 PUSH3 0x2AF DUP3 DUP5 PUSH3 0x26A JUMP JUMPDEST SWAP2 POP DUP2 SWAP1 POP SWAP3 SWAP2 POP POP JUMP JUMPDEST PUSH1 0x0 DUP1 REVERT JUMPDEST PUSH3 0x2CA DUP2 PUSH3 0x1BF JUMP JUMPDEST DUP2 EQ PUSH3 0x2D6 JUMPI PUSH1 0x0 DUP1 REVERT JUMPDEST POP JUMP JUMPDEST PUSH1 0x0 DUP2 MLOAD SWAP1 POP PUSH3 0x2EA DUP2 PUSH3 0x2BF JUMP JUMPDEST SWAP3 SWAP2 POP POP JUMP JUMPDEST PUSH1 0x0 PUSH1 0x20 DUP3 DUP5 SUB SLT ISZERO PUSH3 0x309 JUMPI PUSH3 0x308 PUSH3 0x2BA JUMP JUMPDEST JUMPDEST PUSH1 0x0 PUSH3 0x319 DUP5 DUP3 DUP6 ADD PUSH3 0x2D9 JUMP JUMPDEST SWAP2 POP POP SWAP3 SWAP2 POP POP JUMP JUMPDEST PUSH1 0x0 PUSH3 0x32F DUP3 PUSH3 0x11C JUMP JUMPDEST SWAP2 POP PUSH3 0x33C DUP4 PUSH3 0x11C JUMP JUMPDEST SWAP3 POP DUP3 PUSH32 0xFFFFFFFFFFFFFFFFFFFFFFFFFFFFFFFFFFFFFFFFFFFFFFFFFFFFFFFFFFFFFFFF SUB DUP3 GT ISZERO PUSH3 0x374 JUMPI PUSH3 0x373 PUSH3 0x126 JUMP JUMPDEST JUMPDEST DUP3 DUP3 ADD SWAP1 POP SWAP3 SWAP2 POP POP JUMP JUMPDEST PUSH1 0x0 PUSH3 0x38C DUP3 PUSH3 0x11C JUMP JUMPDEST SWAP2 POP PUSH32 0xFFFFFFFFFFFFFFFFFFFFFFFFFFFFFFFFFFFFFFFFFFFFFFFFFFFFFFFFFFFFFFFF DUP3 EQ ISZERO PUSH3 0x3C2 JUMPI PUSH3 0x3C1 PUSH3 0x126 JUMP JUMPDEST JUMPDEST PUSH1 0x1 DUP3 ADD SWAP1 POP SWAP2 SWAP1 POP JUMP JUMPDEST PUSH2 0x1D91 DUP1 PUSH3 0x3DD PUSH1 0x0 CODECOPY PUSH1 0x0 RETURN INVALID PUSH1 0x80 PUSH1 0x40 MSTORE PUSH1 0x4 CALLDATASIZE LT PUSH2 0x3F JUMPI PUSH1 0x0 CALLDATALOAD PUSH1 0xE0 SHR DUP1 PUSH4 0x1FFC9A7 EQ PUSH2 0x44 JUMPI DUP1 PUSH4 0x22895118 EQ PUSH2 0x81 JUMPI DUP1 PUSH4 0x621FD130 EQ PUSH2 0x9D JUMPI DUP1 PUSH4 0xC5F2892F EQ PUSH2 0xC8 JUMPI JUMPDEST PUSH1 0x0 DUP1 REVERT JUMPDEST CALLVALUE DUP1 ISZERO PUSH2 0x50 JUMPI PUSH1 0x0 DUP1 REVERT JUMPDEST POP PUSH2 0x6B PUSH1 0x4 DUP1 CALLDATASIZE SUB DUP2 ADD SWAP1 PUSH2 0x66 SWAP2 SWAP1 PUSH2 0xE99 JUMP JUMPDEST PUSH2 0xF3 JUMP JUMPDEST PUSH1 0x40 MLOAD PUSH2 0x78 SWAP2 SWAP1 PUSH2 0xEE1 JUMP JUMPDEST PUSH1 0x40 MLOAD DUP1 SWAP2 SUB SWAP1 RETURN JUMPDEST PUSH2 0x9B PUSH1 0x4 DUP1 CALLDATASIZE SUB DUP2 ADD SWAP1 PUSH2 0x96 SWAP2 SWAP1 PUSH2 0xF97 JUMP JUMPDEST PUSH2 0x1C5 JUMP JUMPDEST STOP JUMPDEST CALLVALUE DUP1 ISZERO PUSH2 0xA9 JUMPI PUSH1 0x0 DUP1 REVERT JUMPDEST POP PUSH2 0xB2 PUSH2 0x90B JUMP JUMPDEST PUSH1 0x40 MLOAD PUSH2 0xBF SWAP2 SWAP1 PUSH2 0x10F9 JUMP JUMPDEST PUSH1 0x40 MLOAD DUP1 SWAP2 SUB SWAP1 RETURN JUMPDEST CALLVALUE DUP1 ISZERO PUSH2 0xD4 JUMPI PUSH1 0x0 DUP1 REVERT JUMPDEST POP PUSH2 0xDD PUSH2 0x91D JUMP JUMPDEST PUSH1 0x40 MLOAD PUSH2 0xEA SWAP2 SWAP1 PUSH2 0x112A JUMP JUMPDEST PUSH1 0x40 MLOAD DUP1 SWAP2 SUB SWAP1 RETURN JUMPDEST PUSH1 0x0 PUSH32 0x1FFC9A700000000000000000000000000000000000000000000000000000000 PUSH28 0xFFFFFFFFFFFFFFFFFFFFFFFFFFFFFFFFFFFFFFFFFFFFFFFFFFFFFFFF NOT AND DUP3 PUSH28 0xFFFFFFFFFFFFFFFFFFFFFFFFFFFFFFFFFFFFFFFFFFFFFFFFFFFFFFFF NOT AND EQ DUP1 PUSH2 0x1BE JUMPI POP PUSH32 0x8564090700000000000000000000000000000000000000000000000000000000 PUSH28 0xFFFFFFFFFFFFFFFFFFFFFFFFFFFFFFFFFFFFFFFFFFFFFFFFFFFFFFFF NOT AND DUP3 PUSH28 0xFFFFFFFFFFFFFFFFFFFFFFFFFFFFFFFFFFFFFFFFFFFFFFFFFFFFFFFF NOT AND EQ JUMPDEST SWAP1 POP SWAP2 SWAP1 POP JUMP JUMPDEST PUSH1 0x30 DUP8 DUP8 SWAP1 POP EQ PUSH2 0x20B JUMPI PUSH1 0x40 MLOAD PUSH32 0x8C379A000000000000000000000000000000000000000000000000000000000 DUP2 MSTORE PUSH1 0x4 ADD PUSH2 0x202 SWAP1 PUSH2 0x11C8 JUMP JUMPDEST PUSH1 0x40 MLOAD DUP1 SWAP2 SUB SWAP1 REVERT JUMPDEST PUSH1 0x20 DUP6 DUP6 SWAP1 POP EQ PUSH2 0x251 JUMPI PUSH1 0x40 MLOAD PUSH32 0x8C379A000000000000000000000000000000000000000000000000000000000 DUP2 MSTORE PUSH1 0x4 ADD PUSH2 0x248 SWAP1 PUSH2 0x125A JUMP JUMPDEST PUSH1 0x40 MLOAD DUP1 SWAP2 SUB SWAP1 REVERT JUMPDEST PUSH1 0x60 DUP4 DUP4 SWAP1 POP EQ PUSH2 0x297 JUMPI PUSH1 0x40 MLOAD PUSH32 0x8C379A000000000000000000000000000000000000000000000000000000000 DUP2 MSTORE PUSH1 0x4 ADD PUSH2 0x28E SWAP1 PUSH2 0x12EC JUMP JUMPDEST PUSH1 0x40 MLOAD DUP1 SWAP2 SUB SWAP1 REVERT JUMPDEST PUSH8 0xDE0B6B3A7640000 CALLVALUE LT ISZERO PUSH2 0x2E2 JUMPI PUSH1 0x40 MLOAD PUSH32 0x8C379A000000000000000000000000000000000000000000000000000000000 DUP2 MSTORE PUSH1 0x4 ADD PUSH2 0x2D9 SWAP1 PUSH2 0x137E JUMP JUMPDEST PUSH1 0x40 MLOAD DUP1 SWAP2 SUB SWAP1 REVERT JUMPDEST PUSH1 0x0 PUSH4 0x3B9ACA00 CALLVALUE PUSH2 0x2F4 SWAP2 SWAP1 PUSH2 0x13D7 JUMP JUMPDEST EQ PUSH2 0x334 JUMPI PUSH1 0x40 MLOAD PUSH32 0x8C379A000000000000000000000000000000000000000000000000000000000 DUP2 MSTORE PUSH1 0x4 ADD PUSH2 0x32B SWAP1 PUSH2 0x147A JUMP JUMPDEST PUSH1 0x40 MLOAD DUP1 SWAP2 SUB SWAP1 REVERT JUMPDEST PUSH1 0x0 PUSH4 0x3B9ACA00 CALLVALUE PUSH2 0x346 SWAP2 SWAP1 PUSH2 0x14C9 JUMP JUMPDEST SWAP1 POP PUSH8 0xFFFFFFFFFFFFFFFF DUP1 AND DUP2 GT ISZERO PUSH2 0x395 JUMPI PUSH1 0x40 MLOAD PUSH32 0x8C379A000000000000000000000000000000000000000000000000000000000 DUP2 MSTORE PUSH1 0x4 ADD PUSH2 0x38C SWAP1 PUSH2 0x156C JUMP JUMPDEST PUSH1 0x40 MLOAD DUP1 SWAP2 SUB SWAP1 REVERT JUMPDEST PUSH1 0x0 PUSH2 0x3A0 DUP3 PUSH2 0xAFF JUMP JUMPDEST SWAP1 POP PUSH32 0x649BBC62D0E31342AFEA4E5CD82D4049E7E1EE912FC0889AA790803BE39038C5 DUP10 DUP10 DUP10 DUP10 DUP6 DUP11 DUP11 PUSH2 0x3D5 PUSH1 0x20 SLOAD PUSH2 0xAFF JUMP JUMPDEST PUSH1 0x40 MLOAD PUSH2 0x3E9 SWAP9 SWAP8 SWAP7 SWAP6 SWAP5 SWAP4 SWAP3 SWAP2 SWAP1 PUSH2 0x15C8 JUMP JUMPDEST PUSH1 0x40 MLOAD DUP1 SWAP2 SUB SWAP1 LOG1 PUSH1 0x0 PUSH1 0x2 DUP11 DUP11 PUSH1 0x0 PUSH1 0x80 SHL PUSH1 0x40 MLOAD PUSH1 0x20 ADD PUSH2 0x40E SWAP4 SWAP3 SWAP2 SWAP1 PUSH2 0x16C1 JUMP JUMPDEST PUSH1 0x40 MLOAD PUSH1 0x20 DUP2 DUP4 SUB SUB DUP2 MSTORE SWAP1 PUSH1 0x40 MSTORE PUSH1 0x40 MLOAD PUSH2 0x42A SWAP2 SWAP1 PUSH2 0x171C JUMP JUMPDEST PUSH1 0x20 PUSH1 0x40 MLOAD DUP1 DUP4 SUB DUP2 DUP6 GAS STATICCALL ISZERO DUP1 ISZERO PUSH2 0x447 JUMPI RETURNDATASIZE PUSH1 0x0 DUP1 RETURNDATACOPY RETURNDATASIZE PUSH1 0x0 REVERT JUMPDEST POP POP POP PUSH1 0x40 MLOAD RETURNDATASIZE PUSH1 0x1F NOT PUSH1 0x1F DUP3 ADD AND DUP3 ADD DUP1 PUSH1 0x40 MSTORE POP DUP2 ADD SWAP1 PUSH2 0x46A SWAP2 SWAP1 PUSH2 0x1748 JUMP JUMPDEST SWAP1 POP PUSH1 0x0 PUSH1 0x2 DUP1 DUP9 DUP9 PUSH1 0x0 SWAP1 PUSH1 0x40 SWAP3 PUSH2 0x485 SWAP4 SWAP3 SWAP2 SWAP1 PUSH2 0x177F JUMP JUMPDEST PUSH1 0x40 MLOAD PUSH1 0x20 ADD PUSH2 0x496 SWAP3 SWAP2 SWAP1 PUSH2 0x17BA JUMP JUMPDEST PUSH1 0x40 MLOAD PUSH1 0x20 DUP2 DUP4 SUB SUB DUP2 MSTORE SWAP1 PUSH1 0x40 MSTORE PUSH1 0x40 MLOAD PUSH2 0x4B2 SWAP2 SWAP1 PUSH2 0x171C JUMP JUMPDEST PUSH1 0x20 PUSH1 0x40 MLOAD DUP1 DUP4 SUB DUP2 DUP6 GAS STATICCALL ISZERO DUP1 ISZERO PUSH2 0x4CF JUMPI RETURNDATASIZE PUSH1 0x0 DUP1 RETURNDATACOPY RETURNDATASIZE PUSH1 0x0 REVERT JUMPDEST POP POP POP PUSH1 0x40 MLOAD RETURNDATASIZE PUSH1 0x1F NOT PUSH1 0x1F DUP3 ADD AND DUP3 ADD DUP1 PUSH1 0x40 MSTORE POP DUP2 ADD SWAP1 PUSH2 0x4F2 SWAP2 SWAP1 PUSH2 0x1748 JUMP JUMPDEST PUSH1 0x2 DUP10 DUP10 PUSH1 0x40 SWAP1 DUP1 SWAP3 PUSH2 0x507 SWAP4 SWAP3 SWAP2 SWAP1 PUSH2 0x177F JUMP JUMPDEST PUSH1 0x0 DUP1 SHL PUSH1 0x40 MLOAD PUSH1 0x20 ADD PUSH2 0x51D SWAP4 SWAP3 SWAP2 SWAP1 PUSH2 0x17F4 JUMP JUMPDEST PUSH1 0x40 MLOAD PUSH1 0x20 DUP2 DUP4 SUB SUB DUP2 MSTORE SWAP1 PUSH1 0x40 MSTORE PUSH1 0x40 MLOAD PUSH2 0x539 SWAP2 SWAP1 PUSH2 0x171C JUMP JUMPDEST PUSH1 0x20 PUSH1 0x40 MLOAD DUP1 DUP4 SUB DUP2 DUP6 GAS STATICCALL ISZERO DUP1 ISZERO PUSH2 0x556 JUMPI RETURNDATASIZE PUSH1 0x0 DUP1 RETURNDATACOPY RETURNDATASIZE PUSH1 0x0 REVERT JUMPDEST POP POP POP PUSH1 0x40 MLOAD RETURNDATASIZE PUSH1 0x1F NOT PUSH1 0x1F DUP3 ADD AND DUP3 ADD DUP1 PUSH1 0x40 MSTORE POP DUP2 ADD SWAP1 PUSH2 0x579 SWAP2 SWAP1 PUSH2 0x1748 JUMP JUMPDEST PUSH1 0x40 MLOAD PUSH1 0x20 ADD PUSH2 0x58A SWAP3 SWAP2 SWAP1 PUSH2 0x181E JUMP JUMPDEST PUSH1 0x40 MLOAD PUSH1 0x20 DUP2 DUP4 SUB SUB DUP2 MSTORE SWAP1 PUSH1 0x40 MSTORE PUSH1 0x40 MLOAD PUSH2 0x5A6 SWAP2 SWAP1 PUSH2 0x171C JUMP JUMPDEST PUSH1 0x20 PUSH1 0x40 MLOAD DUP1 DUP4 SUB DUP2 DUP6 GAS STATICCALL ISZERO DUP1 ISZERO PUSH2 0x5C3 JUMPI RETURNDATASIZE PUSH1 0x0 DUP1 RETURNDATACOPY RETURNDATASIZE PUSH1 0x0 REVERT JUMPDEST POP POP POP PUSH1 0x40 MLOAD RETURNDATASIZE PUSH1 0x1F NOT PUSH1 0x1F DUP3 ADD AND DUP3 ADD DUP1 PUSH1 0x40 MSTORE POP DUP2 ADD SWAP1 PUSH2 0x5E6 SWAP2 SWAP1 PUSH2 0x1748 JUMP JUMPDEST SWAP1 POP PUSH1 0x0 PUSH1 0x2 DUP1 DUP5 DUP13 DUP13 PUSH1 0x40 MLOAD PUSH1 0x20 ADD PUSH2 0x602 SWAP4 SWAP3 SWAP2 SWAP1 PUSH2 0x184A JUMP JUMPDEST PUSH1 0x40 MLOAD PUSH1 0x20 DUP2 DUP4 SUB SUB DUP2 MSTORE SWAP1 PUSH1 0x40 MSTORE PUSH1 0x40 MLOAD PUSH2 0x61E SWAP2 SWAP1 PUSH2 0x171C JUMP JUMPDEST PUSH1 0x20 PUSH1 0x40 MLOAD DUP1 DUP4 SUB DUP2 DUP6 GAS STATICCALL ISZERO DUP1 ISZERO PUSH2 0x63B JUMPI RETURNDATASIZE PUSH1 0x0 DUP1 RETURNDATACOPY RETURNDATASIZE PUSH1 0x0 REVERT JUMPDEST POP POP POP PUSH1 0x40 MLOAD RETURNDATASIZE PUSH1 0x1F NOT PUSH1 0x1F DUP3 ADD AND DUP3 ADD DUP1 PUSH1 0x40 MSTORE POP DUP2 ADD SWAP1 PUSH2 0x65E SWAP2 SWAP1 PUSH2 0x1748 JUMP JUMPDEST PUSH1 0x2 DUP7 PUSH1 0x0 PUSH1 0x40 SHL DUP7 PUSH1 0x40 MLOAD PUSH1 0x20 ADD PUSH2 0x679 SWAP4 SWAP3 SWAP2 SWAP1 PUSH2 0x18C1 JUMP JUMPDEST PUSH1 0x40 MLOAD PUSH1 0x20 DUP2 DUP4 SUB SUB DUP2 MSTORE SWAP1 PUSH1 0x40 MSTORE PUSH1 0x40 MLOAD PUSH2 0x695 SWAP2 SWAP1 PUSH2 0x171C JUMP JUMPDEST PUSH1 0x20 PUSH1 0x40 MLOAD DUP1 DUP4 SUB DUP2 DUP6 GAS STATICCALL ISZERO DUP1 ISZERO PUSH2 0x6B2 JUMPI RETURNDATASIZE PUSH1 0x0 DUP1 RETURNDATACOPY RETURNDATASIZE PUSH1 0x0 REVERT JUMPDEST POP POP POP PUSH1 0x40 MLOAD RETURNDATASIZE PUSH1 0x1F NOT PUSH1 0x1F DUP3 ADD AND DUP3 ADD DUP1 PUSH1 0x40 MSTORE POP DUP2 ADD SWAP1 PUSH2 0x6D5 SWAP2 SWAP1 PUSH2 0x1748 JUMP JUMPDEST PUSH1 0x40 MLOAD PUSH1 0x20 ADD PUSH2 0x6E6 SWAP3 SWAP2 SWAP1 PUSH2 0x181E JUMP JUMPDEST PUSH1 0x40 MLOAD PUSH1 0x20 DUP2 DUP4 SUB SUB DUP2 MSTORE SWAP1 PUSH1 0x40 MSTORE PUSH1 0x40 MLOAD PUSH2 0x702 SWAP2 SWAP1 PUSH2 0x171C JUMP JUMPDEST PUSH1 0x20 PUSH1 0x40 MLOAD DUP1 DUP4 SUB DUP2 DUP6 GAS STATICCALL ISZERO DUP1 ISZERO PUSH2 0x71F JUMPI RETURNDATASIZE PUSH1 0x0 DUP1 RETURNDATACOPY RETURNDATASIZE PUSH1 0x0 REVERT JUMPDEST POP POP POP PUSH1 0x40 MLOAD RETURNDATASIZE PUSH1 0x1F NOT PUSH1 0x1F DUP3 ADD AND DUP3 ADD DUP1 PUSH1 0x40 MSTORE POP DUP2 ADD SWAP1 PUSH2 0x742 SWAP2 SWAP1 PUSH2 0x1748 JUMP JUMPDEST SWAP1 POP DUP6 DUP2 EQ PUSH2 0x786 JUMPI PUSH1 0x40 MLOAD PUSH32 0x8C379A000000000000000000000000000000000000000000000000000000000 DUP2 MSTORE PUSH1 0x4 ADD PUSH2 0x77D SWAP1 PUSH2 0x1992 JUMP JUMPDEST PUSH1 0x40 MLOAD DUP1 SWAP2 SUB SWAP1 REVERT JUMPDEST PUSH1 0x1 PUSH1 0x20 PUSH1 0x2 PUSH2 0x796 SWAP2 SWAP1 PUSH2 0x1AE5 JUMP JUMPDEST PUSH2 0x7A0 SWAP2 SWAP1 PUSH2 0x1B30 JUMP JUMPDEST PUSH1 0x20 SLOAD LT PUSH2 0x7E3 JUMPI PUSH1 0x40 MLOAD PUSH32 0x8C379A000000000000000000000000000000000000000000000000000000000 DUP2 MSTORE PUSH1 0x4 ADD PUSH2 0x7DA SWAP1 PUSH2 0x1BD6 JUMP JUMPDEST PUSH1 0x40 MLOAD DUP1 SWAP2 SUB SWAP1 REVERT JUMPDEST PUSH1 0x1 PUSH1 0x20 PUSH1 0x0 DUP3 DUP3 SLOAD PUSH2 0x7F6 SWAP2 SWAP1 PUSH2 0x1BF6 JUMP JUMPDEST SWAP3 POP POP DUP2 SWAP1 SSTORE POP PUSH1 0x0 PUSH1 0x20 SLOAD SWAP1 POP PUSH1 0x0 JUMPDEST PUSH1 0x20 DUP2 LT ISZERO PUSH2 0x8EB JUMPI PUSH1 0x1 DUP1 DUP4 AND EQ ISZERO PUSH2 0x841 JUMPI DUP3 PUSH1 0x0 DUP3 PUSH1 0x20 DUP2 LT PUSH2 0x830 JUMPI PUSH2 0x82F PUSH2 0x1C4C JUMP JUMPDEST JUMPDEST ADD DUP2 SWAP1 SSTORE POP POP POP POP POP POP POP POP PUSH2 0x902 JUMP JUMPDEST PUSH1 0x2 PUSH1 0x0 DUP3 PUSH1 0x20 DUP2 LT PUSH2 0x857 JUMPI PUSH2 0x856 PUSH2 0x1C4C JUMP JUMPDEST JUMPDEST ADD SLOAD DUP5 PUSH1 0x40 MLOAD PUSH1 0x20 ADD PUSH2 0x86B SWAP3 SWAP2 SWAP1 PUSH2 0x181E JUMP JUMPDEST PUSH1 0x40 MLOAD PUSH1 0x20 DUP2 DUP4 SUB SUB DUP2 MSTORE SWAP1 PUSH1 0x40 MSTORE PUSH1 0x40 MLOAD PUSH2 0x887 SWAP2 SWAP1 PUSH2 0x171C JUMP JUMPDEST PUSH1 0x20 PUSH1 0x40 MLOAD DUP1 DUP4 SUB DUP2 DUP6 GAS STATICCALL ISZERO DUP1 ISZERO PUSH2 0x8A4 JUMPI RETURNDATASIZE PUSH1 0x0 DUP1 RETURNDATACOPY RETURNDATASIZE PUSH1 0x0 REVERT JUMPDEST POP POP POP PUSH1 0x40 MLOAD RETURNDATASIZE PUSH1 0x1F NOT PUSH1 0x1F DUP3 ADD AND DUP3 ADD DUP1 PUSH1 0x40 MSTORE POP DUP2 ADD SWAP1 PUSH2 0x8C7 SWAP2 SWAP1 PUSH2 0x1748 JUMP JUMPDEST SWAP3 POP PUSH1 0x2 DUP3 PUSH2 0x8D6 SWAP2 SWAP1 PUSH2 0x14C9 JUMP JUMPDEST SWAP2 POP DUP1 DUP1 PUSH2 0x8E3 SWAP1 PUSH2 0x1C7B JUMP JUMPDEST SWAP2 POP POP PUSH2 0x807 JUMP JUMPDEST POP PUSH1 0x0 PUSH2 0x8FB JUMPI PUSH2 0x8FA PUSH2 0x1CC4 JUMP JUMPDEST JUMPDEST POP POP POP POP POP POP JUMPDEST POP POP POP POP POP POP POP JUMP JUMPDEST PUSH1 0x60 PUSH2 0x918 PUSH1 0x20 SLOAD PUSH2 0xAFF JUMP JUMPDEST SWAP1 POP SWAP1 JUMP JUMPDEST PUSH1 0x0 DUP1 PUSH1 0x0 PUSH1 0x20 SLOAD SWAP1 POP PUSH1 0x0 JUMPDEST PUSH1 0x20 DUP2 LT ISZERO PUSH2 0xA76 JUMPI PUSH1 0x1 DUP1 DUP4 AND EQ ISZERO PUSH2 0x9CB JUMPI PUSH1 0x2 PUSH1 0x0 DUP3 PUSH1 0x20 DUP2 LT PUSH2 0x954 JUMPI PUSH2 0x953 PUSH2 0x1C4C JUMP JUMPDEST JUMPDEST ADD SLOAD DUP5 PUSH1 0x40 MLOAD PUSH1 0x20 ADD PUSH2 0x968 SWAP3 SWAP2 SWAP1 PUSH2 0x181E JUMP JUMPDEST PUSH1 0x40 MLOAD PUSH1 0x20 DUP2 DUP4 SUB SUB DUP2 MSTORE SWAP1 PUSH1 0x40 MSTORE PUSH1 0x40 MLOAD PUSH2 0x984 SWAP2 SWAP1 PUSH2 0x171C JUMP JUMPDEST PUSH1 0x20 PUSH1 0x40 MLOAD DUP1 DUP4 SUB DUP2 DUP6 GAS STATICCALL ISZERO DUP1 ISZERO PUSH2 0x9A1 JUMPI RETURNDATASIZE PUSH1 0x0 DUP1 RETURNDATACOPY RETURNDATASIZE PUSH1 0x0 REVERT JUMPDEST POP POP POP PUSH1 0x40 MLOAD RETURNDATASIZE PUSH1 0x1F NOT PUSH1 0x1F DUP3 ADD AND DUP3 ADD DUP1 PUSH1 0x40 MSTORE POP DUP2 ADD SWAP1 PUSH2 0x9C4 SWAP2 SWAP1 PUSH2 0x1748 JUMP JUMPDEST SWAP3 POP PUSH2 0xA54 JUMP JUMPDEST PUSH1 0x2 DUP4 PUSH1 0x21 DUP4 PUSH1 0x20 DUP2 LT PUSH2 0x9E2 JUMPI PUSH2 0x9E1 PUSH2 0x1C4C JUMP JUMPDEST JUMPDEST ADD SLOAD PUSH1 0x40 MLOAD PUSH1 0x20 ADD PUSH2 0x9F5 SWAP3 SWAP2 SWAP1 PUSH2 0x181E JUMP JUMPDEST PUSH1 0x40 MLOAD PUSH1 0x20 DUP2 DUP4 SUB SUB DUP2 MSTORE SWAP1 PUSH1 0x40 MSTORE PUSH1 0x40 MLOAD PUSH2 0xA11 SWAP2 SWAP1 PUSH2 0x171C JUMP JUMPDEST PUSH1 0x20 PUSH1 0x40 MLOAD DUP1 DUP4 SUB DUP2 DUP6 GAS STATICCALL ISZERO DUP1 ISZERO PUSH2 0xA2E JUMPI RETURNDATASIZE PUSH1 0x0 DUP1 RETURNDATACOPY RETURNDATASIZE PUSH1 0x0 REVERT JUMPDEST POP POP POP PUSH1 0x40 MLOAD RETURNDATASIZE PUSH1 0x1F NOT PUSH1 0x1F DUP3 ADD AND DUP3 ADD DUP1 PUSH1 0x40 MSTORE POP DUP2 ADD SWAP1 PUSH2 0xA51 SWAP2 SWAP1 PUSH2 0x1748 JUMP JUMPDEST SWAP3 POP JUMPDEST PUSH1 0x2 DUP3 PUSH2 0xA61 SWAP2 SWAP1 PUSH2 0x14C9 JUMP JUMPDEST SWAP2 POP DUP1 DUP1 PUSH2 0xA6E SWAP1 PUSH2 0x1C7B JUMP JUMPDEST SWAP2 POP POP PUSH2 0x92A JUMP JUMPDEST POP PUSH1 0x2 DUP3 PUSH2 0xA85 PUSH1 0x20 SLOAD PUSH2 0xAFF JUMP JUMPDEST PUSH1 0x0 PUSH1 0x40 SHL PUSH1 0x40 MLOAD PUSH1 0x20 ADD PUSH2 0xA9C SWAP4 SWAP3 SWAP2 SWAP1 PUSH2 0x1CF3 JUMP JUMPDEST PUSH1 0x40 MLOAD PUSH1 0x20 DUP2 DUP4 SUB SUB DUP2 MSTORE SWAP1 PUSH1 0x40 MSTORE PUSH1 0x40 MLOAD PUSH2 0xAB8 SWAP2 SWAP1 PUSH2 0x171C JUMP JUMPDEST PUSH1 0x20 PUSH1 0x40 MLOAD DUP1 DUP4 SUB DUP2 DUP6 GAS STATICCALL ISZERO DUP1 ISZERO PUSH2 0xAD5 JUMPI RETURNDATASIZE PUSH1 0x0 DUP1 RETURNDATACOPY RETURNDATASIZE PUSH1 0x0 REVERT JUMPDEST POP POP POP PUSH1 0x40 MLOAD RETURNDATASIZE PUSH1 0x1F NOT PUSH1 0x1F DUP3 ADD AND DUP3 ADD DUP1 PUSH1 0x40 MSTORE POP DUP2 ADD SWAP1 PUSH2 0xAF8 SWAP2 SWAP1 PUSH2 0x1748 JUMP JUMPDEST SWAP3 POP POP POP SWAP1 JUMP JUMPDEST PUSH1 0x60 PUSH1 0x8 PUSH8 0xFFFFFFFFFFFFFFFF DUP2 GT ISZERO PUSH2 0xB1C JUMPI PUSH2 0xB1B PUSH2 0x1D2C JUMP JUMPDEST JUMPDEST PUSH1 0x40 MLOAD SWAP1 DUP1 DUP3 MSTORE DUP1 PUSH1 0x1F ADD PUSH1 0x1F NOT AND PUSH1 0x20 ADD DUP3 ADD PUSH1 0x40 MSTORE DUP1 ISZERO PUSH2 0xB4E JUMPI DUP2 PUSH1 0x20 ADD PUSH1 0x1 DUP3 MUL DUP1 CALLDATASIZE DUP4 CALLDATACOPY DUP1 DUP3 ADD SWAP2 POP POP SWAP1 POP JUMPDEST POP SWAP1 POP PUSH1 0x0 DUP3 PUSH1 0xC0 SHL SWAP1 POP DUP1 PUSH1 0x7 PUSH1 0x8 DUP2 LT PUSH2 0xB6D JUMPI PUSH2 0xB6C PUSH2 0x1C4C JUMP JUMPDEST JUMPDEST BYTE PUSH1 0xF8 SHL DUP3 PUSH1 0x0 DUP2 MLOAD DUP2 LT PUSH2 0xB85 JUMPI PUSH2 0xB84 PUSH2 0x1C4C JUMP JUMPDEST JUMPDEST PUSH1 0x20 ADD ADD SWAP1 PUSH31 0xFFFFFFFFFFFFFFFFFFFFFFFFFFFFFFFFFFFFFFFFFFFFFFFFFFFFFFFFFFFFFF NOT AND SWAP1 DUP2 PUSH1 0x0 BYTE SWAP1 MSTORE8 POP DUP1 PUSH1 0x6 PUSH1 0x8 DUP2 LT PUSH2 0xBC8 JUMPI PUSH2 0xBC7 PUSH2 0x1C4C JUMP JUMPDEST JUMPDEST BYTE PUSH1 0xF8 SHL DUP3 PUSH1 0x1 DUP2 MLOAD DUP2 LT PUSH2 0xBE0 JUMPI PUSH2 0xBDF PUSH2 0x1C4C JUMP JUMPDEST JUMPDEST PUSH1 0x20 ADD ADD SWAP1 PUSH31 0xFFFFFFFFFFFFFFFFFFFFFFFFFFFFFFFFFFFFFFFFFFFFFFFFFFFFFFFFFFFFFF NOT AND SWAP1 DUP2 PUSH1 0x0 BYTE SWAP1 MSTORE8 POP DUP1 PUSH1 0x5 PUSH1 0x8 DUP2 LT PUSH2 0xC23 JUMPI PUSH2 0xC22 PUSH2 0x1C4C JUMP JUMPDEST JUMPDEST BYTE PUSH1 0xF8 SHL DUP3 PUSH1 0x2 DUP2 MLOAD DUP2 LT PUSH2 0xC3B JUMPI PUSH2 0xC3A PUSH2 0x1C4C JUMP JUMPDEST JUMPDEST PUSH1 0x20 ADD ADD SWAP1 PUSH31 0xFFFFFFFFFFFFFFFFFFFFFFFFFFFFFFFFFFFFFFFFFFFFFFFFFFFFFFFFFFFFFF NOT AND SWAP1 DUP2 PUSH1 0x0 BYTE SWAP1 MSTORE8 POP DUP1 PUSH1 0x4 PUSH1 0x8 DUP2 LT PUSH2 0xC7E JUMPI PUSH2 0xC7D PUSH2 0x1C4C JUMP JUMPDEST JUMPDEST BYTE PUSH1 0xF8 SHL DUP3 PUSH1 0x3 DUP2 MLOAD DUP2 LT PUSH2 0xC96 JUMPI PUSH2 0xC95 PUSH2 0x1C4C JUMP JUMPDEST JUMPDEST PUSH1 0x20 ADD ADD SWAP1 PUSH31 0xFFFFFFFFFFFFFFFFFFFFFFFFFFFFFFFFFFFFFFFFFFFFFFFFFFFFFFFFFFFFFF NOT AND SWAP1 DUP2 PUSH1 0x0 BYTE SWAP1 MSTORE8 POP DUP1 PUSH1 0x3 PUSH1 0x8 DUP2 LT PUSH2 0xCD9 JUMPI PUSH2 0xCD8 PUSH2 0x1C4C JUMP JUMPDEST JUMPDEST BYTE PUSH1 0xF8 SHL DUP3 PUSH1 0x4 DUP2 MLOAD DUP2 LT PUSH2 0xCF1 JUMPI PUSH2 0xCF0 PUSH2 0x1C4C JUMP JUMPDEST JUMPDEST PUSH1 0x20 ADD ADD SWAP1 PUSH31 0xFFFFFFFFFFFFFFFFFFFFFFFFFFFFFFFFFFFFFFFFFFFFFFFFFFFFFFFFFFFFFF NOT AND SWAP1 DUP2 PUSH1 0x0 BYTE SWAP1 MSTORE8 POP DUP1 PUSH1 0x2 PUSH1 0x8 DUP2 LT PUSH2 0xD34 JUMPI PUSH2 0xD33 PUSH2 0x1C4C JUMP JUMPDEST JUMPDEST BYTE PUSH1 0xF8 SHL DUP3 PUSH1 0x5 DUP2 MLOAD DUP2 LT PUSH2 0xD4C JUMPI PUSH2 0xD4B PUSH2 0x1C4C JUMP JUMPDEST JUMPDEST PUSH1 0x20 ADD ADD SWAP1 PUSH31 0xFFFFFFFFFFFFFFFFFFFFFFFFFFFFFFFFFFFFFFFFFFFFFFFFFFFFFFFFFFFFFF NOT AND SWAP1 DUP2 PUSH1 0x0 BYTE SWAP1 MSTORE8 POP DUP1 PUSH1 0x1 PUSH1 0x8 DUP2 LT PUSH2 0xD8F JUMPI PUSH2 0xD8E PUSH2 0x1C4C JUMP JUMPDEST JUMPDEST BYTE PUSH1 0xF8 SHL DUP3 PUSH1 0x6 DUP2 MLOAD DUP2 LT PUSH2 0xDA7 JUMPI PUSH2 0xDA6 PUSH2 0x1C4C JUMP JUMPDEST JUMPDEST PUSH1 0x20 ADD ADD SWAP1 PUSH31 0xFFFFFFFFFFFFFFFFFFFFFFFFFFFFFFFFFFFFFFFFFFFFFFFFFFFFFFFFFFFFFF NOT AND SWAP1 DUP2 PUSH1 0x0 BYTE SWAP1 MSTORE8 POP DUP1 PUSH1 0x0 PUSH1 0x8 DUP2 LT PUSH2 0xDEA JUMPI PUSH2 0xDE9 PUSH2 0x1C4C JUMP JUMPDEST JUMPDEST BYTE PUSH1 0xF8 SHL DUP3 PUSH1 0x7 DUP2 MLOAD DUP2 LT PUSH2 0xE02 JUMPI PUSH2 0xE01 PUSH2 0x1C4C JUMP JUMPDEST JUMPDEST PUSH1 0x20 ADD ADD SWAP1 PUSH31 0xFFFFFFFFFFFFFFFFFFFFFFFFFFFFFFFFFFFFFFFFFFFFFFFFFFFFFFFFFFFFFF NOT AND SWAP1 DUP2 PUSH1 0x0 BYTE SWAP1 MSTORE8 POP POP SWAP2 SWAP1 POP JUMP JUMPDEST PUSH1 0x0 DUP1 REVERT JUMPDEST PUSH1 0x0 DUP1 REVERT JUMPDEST PUSH1 0x0 PUSH32 0xFFFFFFFF00000000000000000000000000000000000000000000000000000000 DUP3 AND SWAP1 POP SWAP2 SWAP1 POP JUMP JUMPDEST PUSH2 0xE76 DUP2 PUSH2 0xE41 JUMP JUMPDEST DUP2 EQ PUSH2 0xE81 JUMPI PUSH1 0x0 DUP1 REVERT JUMPDEST POP JUMP JUMPDEST PUSH1 0x0 DUP2 CALLDATALOAD SWAP1 POP PUSH2 0xE93 DUP2 PUSH2 0xE6D JUMP JUMPDEST SWAP3 SWAP2 POP POP JUMP JUMPDEST PUSH1 0x0 PUSH1 0x20 DUP3 DUP5 SUB SLT ISZERO PUSH2 0xEAF JUMPI PUSH2 0xEAE PUSH2 0xE37 JUMP JUMPDEST JUMPDEST PUSH1 0x0 PUSH2 0xEBD DUP5 DUP3 DUP6 ADD PUSH2 0xE84 JUMP JUMPDEST SWAP2 POP POP SWAP3 SWAP2 POP POP JUMP JUMPDEST PUSH1 0x0 DUP2 ISZERO ISZERO SWAP1 POP SWAP2 SWAP1 POP JUMP JUMPDEST PUSH2 0xEDB DUP2 PUSH2 0xEC6 JUMP JUMPDEST DUP3 MSTORE POP POP JUMP JUMPDEST PUSH1 0x0 PUSH1 0x20 DUP3 ADD SWAP1 POP PUSH2 0xEF6 PUSH1 0x0 DUP4 ADD DUP5 PUSH2 0xED2 JUMP JUMPDEST SWAP3 SWAP2 POP POP JUMP JUMPDEST PUSH1 0x0 DUP1 REVERT JUMPDEST PUSH1 0x0 DUP1 REVERT JUMPDEST PUSH1 0x0 DUP1 REVERT JUMPDEST PUSH1 0x0 DUP1 DUP4 PUSH1 0x1F DUP5 ADD SLT PUSH2 0xF21 JUMPI PUSH2 0xF20 PUSH2 0xEFC JUMP JUMPDEST JUMPDEST DUP3 CALLDATALOAD SWAP1 POP PUSH8 0xFFFFFFFFFFFFFFFF DUP2 GT ISZERO PUSH2 0xF3E JUMPI PUSH2 0xF3D PUSH2 0xF01 JUMP JUMPDEST JUMPDEST PUSH1 0x20 DUP4 ADD SWAP2 POP DUP4 PUSH1 0x1 DUP3 MUL DUP4 ADD GT ISZERO PUSH2 0xF5A JUMPI PUSH2 0xF59 PUSH2 0xF06 JUMP JUMPDEST JUMPDEST SWAP3 POP SWAP3 SWAP1 POP JUMP JUMPDEST PUSH1 0x0 DUP2 SWAP1 POP SWAP2 SWAP1 POP JUMP JUMPDEST PUSH2 0xF74 DUP2 PUSH2 0xF61 JUMP JUMPDEST DUP2 EQ PUSH2 0xF7F JUMPI PUSH1 0x0 DUP1 REVERT JUMPDEST POP JUMP JUMPDEST PUSH1 0x0 DUP2 CALLDATALOAD SWAP1 POP PUSH2 0xF91 DUP2 PUSH2 0xF6B JUMP JUMPDEST SWAP3 SWAP2 POP POP JUMP JUMPDEST PUSH1 0x0 DUP1 PUSH1 0x0 DUP1 PUSH1 0x0 DUP1 PUSH1 0x0 PUSH1 0x80 DUP9 DUP11 SUB SLT ISZERO PUSH2 0xFB6 JUMPI PUSH2 0xFB5 PUSH2 0xE37 JUMP JUMPDEST JUMPDEST PUSH1 0x0 DUP9 ADD CALLDATALOAD PUSH8 0xFFFFFFFFFFFFFFFF DUP2 GT ISZERO PUSH2 0xFD4 JUMPI PUSH2 0xFD3 PUSH2 0xE3C JUMP JUMPDEST JUMPDEST PUSH2 0xFE0 DUP11 DUP3 DUP12 ADD PUSH2 0xF0B JUMP JUMPDEST SWAP8 POP SWAP8 POP POP PUSH1 0x20 DUP9 ADD CALLDATALOAD PUSH8 0xFFFFFFFFFFFFFFFF DUP2 GT ISZERO PUSH2 0x1003 JUMPI PUSH2 0x1002 PUSH2 0xE3C JUMP JUMPDEST JUMPDEST PUSH2 0x100F DUP11 DUP3 DUP12 ADD PUSH2 0xF0B JUMP JUMPDEST SWAP6 POP SWAP6 POP POP PUSH1 0x40 DUP9 ADD CALLDATALOAD PUSH8 0xFFFFFFFFFFFFFFFF DUP2 GT ISZERO PUSH2 0x1032 JUMPI PUSH2 0x1031 PUSH2 0xE3C JUMP JUMPDEST JUMPDEST PUSH2 0x103E DUP11 DUP3 DUP12 ADD PUSH2 0xF0B JUMP JUMPDEST SWAP4 POP SWAP4 POP POP PUSH1 0x60 PUSH2 0x1051 DUP11 DUP3 DUP12 ADD PUSH2 0xF82 JUMP JUMPDEST SWAP2 POP POP SWAP3 SWAP6 SWAP9 SWAP2 SWAP5 SWAP8 POP SWAP3 SWAP6 POP JUMP JUMPDEST PUSH1 0x0 DUP2 MLOAD SWAP1 POP SWAP2 SWAP1 POP JUMP JUMPDEST PUSH1 0x0 DUP3 DUP3 MSTORE PUSH1 0x20 DUP3 ADD SWAP1 POP SWAP3 SWAP2 POP POP JUMP JUMPDEST PUSH1 0x0 JUMPDEST DUP4 DUP2 LT ISZERO PUSH2 0x109A JUMPI DUP1 DUP3 ADD MLOAD DUP2 DUP5 ADD MSTORE PUSH1 0x20 DUP2 ADD SWAP1 POP PUSH2 0x107F JUMP JUMPDEST DUP4 DUP2 GT ISZERO PUSH2 0x10A9 JUMPI PUSH1 0x0 DUP5 DUP5 ADD MSTORE JUMPDEST POP POP POP POP JUMP JUMPDEST PUSH1 0x0 PUSH1 0x1F NOT PUSH1 0x1F DUP4 ADD AND SWAP1 POP SWAP2 SWAP1 POP JUMP JUMPDEST PUSH1 0x0 PUSH2 0x10CB DUP3 PUSH2 0x1060 JUMP JUMPDEST PUSH2 0x10D5 DUP2 DUP6 PUSH2 0x106B JUMP JUMPDEST SWAP4 POP PUSH2 0x10E5 DUP2 DUP6 PUSH1 0x20 DUP7 ADD PUSH2 0x107C JUMP JUMPDEST PUSH2 0x10EE DUP2 PUSH2 0x10AF JUMP JUMPDEST DUP5 ADD SWAP2 POP POP SWAP3 SWAP2 POP POP JUMP JUMPDEST PUSH1 0x0 PUSH1 0x20 DUP3 ADD SWAP1 POP DUP2 DUP2 SUB PUSH1 0x0 DUP4 ADD MSTORE PUSH2 0x1113 DUP2 DUP5 PUSH2 0x10C0 JUMP JUMPDEST SWAP1 POP SWAP3 SWAP2 POP POP JUMP JUMPDEST PUSH2 0x1124 DUP2 PUSH2 0xF61 JUMP JUMPDEST DUP3 MSTORE POP POP JUMP JUMPDEST PUSH1 0x0 PUSH1 0x20 DUP3 ADD SWAP1 POP PUSH2 0x113F PUSH1 0x0 DUP4 ADD DUP5 PUSH2 0x111B JUMP JUMPDEST SWAP3 SWAP2 POP POP JUMP JUMPDEST PUSH1 0x0 DUP3 DUP3 MSTORE PUSH1 0x20 DUP3 ADD SWAP1 POP SWAP3 SWAP2 POP POP JUMP JUMPDEST PUSH32 0x4465706F736974436F6E74726163743A20696E76616C6964207075626B657920 PUSH1 0x0 DUP3 ADD MSTORE PUSH32 0x6C656E6774680000000000000000000000000000000000000000000000000000 PUSH1 0x20 DUP3 ADD MSTORE POP JUMP JUMPDEST PUSH1 0x0 PUSH2 0x11B2 PUSH1 0x26 DUP4 PUSH2 0x1145 JUMP JUMPDEST SWAP2 POP PUSH2 0x11BD DUP3 PUSH2 0x1156 JUMP JUMPDEST PUSH1 0x40 DUP3 ADD SWAP1 POP SWAP2 SWAP1 POP JUMP JUMPDEST PUSH1 0x0 PUSH1 0x20 DUP3 ADD SWAP1 POP DUP2 DUP2 SUB PUSH1 0x0 DUP4 ADD MSTORE PUSH2 0x11E1 DUP2 PUSH2 0x11A5 JUMP JUMPDEST SWAP1 POP SWAP2 SWAP1 POP JUMP JUMPDEST PUSH32 0x4465706F736974436F6E74726163743A20696E76616C69642077697468647261 PUSH1 0x0 DUP3 ADD MSTORE PUSH32 0x77616C5F63726564656E7469616C73206C656E67746800000000000000000000 PUSH1 0x20 DUP3 ADD MSTORE POP JUMP JUMPDEST PUSH1 0x0 PUSH2 0x1244 PUSH1 0x36 DUP4 PUSH2 0x1145 JUMP JUMPDEST SWAP2 POP PUSH2 0x124F DUP3 PUSH2 0x11E8 JUMP JUMPDEST PUSH1 0x40 DUP3 ADD SWAP1 POP SWAP2 SWAP1 POP JUMP JUMPDEST PUSH1 0x0 PUSH1 0x20 DUP3 ADD SWAP1 POP DUP2 DUP2 SUB PUSH1 0x0 DUP4 ADD MSTORE PUSH2 0x1273 DUP2 PUSH2 0x1237 JUMP JUMPDEST SWAP1 POP SWAP2 SWAP1 POP JUMP JUMPDEST PUSH32 0x4465706F736974436F6E74726163743A20696E76616C6964207369676E617475 PUSH1 0x0 DUP3 ADD MSTORE PUSH32 0x7265206C656E6774680000000000000000000000000000000000000000000000 PUSH1 0x20 DUP3 ADD MSTORE POP JUMP JUMPDEST PUSH1 0x0 PUSH2 0x12D6 PUSH1 0x29 DUP4 PUSH2 0x1145 JUMP JUMPDEST SWAP2 POP PUSH2 0x12E1 DUP3 PUSH2 0x127A JUMP JUMPDEST PUSH1 0x40 DUP3 ADD SWAP1 POP SWAP2 SWAP1 POP JUMP JUMPDEST PUSH1 0x0 PUSH1 0x20 DUP3 ADD SWAP1 POP DUP2 DUP2 SUB PUSH1 0x0 DUP4 ADD MSTORE PUSH2 0x1305 DUP2 PUSH2 0x12C9 JUMP JUMPDEST SWAP1 POP SWAP2 SWAP1 POP JUMP JUMPDEST PUSH32 0x4465706F736974436F6E74726163743A206465706F7369742076616C75652074 PUSH1 0x0 DUP3 ADD MSTORE PUSH32 0x6F6F206C6F770000000000000000000000000000000000000000000000000000 PUSH1 0x20 DUP3 ADD MSTORE POP JUMP JUMPDEST PUSH1 0x0 PUSH2 0x1368 PUSH1 0x26 DUP4 PUSH2 0x1145 JUMP JUMPDEST SWAP2 POP PUSH2 0x1373 DUP3 PUSH2 0x130C JUMP JUMPDEST PUSH1 0x40 DUP3 ADD SWAP1 POP SWAP2 SWAP1 POP JUMP JUMPDEST PUSH1 0x0 PUSH1 0x20 DUP3 ADD SWAP1 POP DUP2 DUP2 SUB PUSH1 0x0 DUP4 ADD MSTORE PUSH2 0x1397 DUP2 PUSH2 0x135B JUMP JUMPDEST SWAP1 POP SWAP2 SWAP1 POP JUMP JUMPDEST PUSH1 0x0 DUP2 SWAP1 POP SWAP2 SWAP1 POP JUMP JUMPDEST PUSH32 0x4E487B7100000000000000000000000000000000000000000000000000000000 PUSH1 0x0 MSTORE PUSH1 0x12 PUSH1 0x4 MSTORE PUSH1 0x24 PUSH1 0x0 REVERT JUMPDEST PUSH1 0x0 PUSH2 0x13E2 DUP3 PUSH2 0x139E JUMP JUMPDEST SWAP2 POP PUSH2 0x13ED DUP4 PUSH2 0x139E JUMP JUMPDEST SWAP3 POP DUP3 PUSH2 0x13FD JUMPI PUSH2 0x13FC PUSH2 0x13A8 JUMP JUMPDEST JUMPDEST DUP3 DUP3 MOD SWAP1 POP SWAP3 SWAP2 POP POP JUMP JUMPDEST PUSH32 0x4465706F736974436F6E74726163743A206465706F7369742076616C7565206E PUSH1 0x0 DUP3 ADD MSTORE PUSH32 0x6F74206D756C7469706C65206F66206777656900000000000000000000000000 PUSH1 0x20 DUP3 ADD MSTORE POP JUMP JUMPDEST PUSH1 0x0 PUSH2 0x1464 PUSH1 0x33 DUP4 PUSH2 0x1145 JUMP JUMPDEST SWAP2 POP PUSH2 0x146F DUP3 PUSH2 0x1408 JUMP JUMPDEST PUSH1 0x40 DUP3 ADD SWAP1 POP SWAP2 SWAP1 POP JUMP JUMPDEST PUSH1 0x0 PUSH1 0x20 DUP3 ADD SWAP1 POP DUP2 DUP2 SUB PUSH1 0x0 DUP4 ADD MSTORE PUSH2 0x1493 DUP2 PUSH2 0x1457 JUMP JUMPDEST SWAP1 POP SWAP2 SWAP1 POP JUMP JUMPDEST PUSH32 0x4E487B7100000000000000000000000000000000000000000000000000000000 PUSH1 0x0 MSTORE PUSH1 0x11 PUSH1 0x4 MSTORE PUSH1 0x24 PUSH1 0x0 REVERT JUMPDEST PUSH1 0x0 PUSH2 0x14D4 DUP3 PUSH2 0x139E JUMP JUMPDEST SWAP2 POP PUSH2 0x14DF DUP4 PUSH2 0x139E JUMP JUMPDEST SWAP3 POP DUP3 PUSH2 0x14EF JUMPI PUSH2 0x14EE PUSH2 0x13A8 JUMP JUMPDEST JUMPDEST DUP3 DUP3 DIV SWAP1 POP SWAP3 SWAP2 POP POP JUMP JUMPDEST PUSH32 0x4465706F736974436F6E74726163743A206465706F7369742076616C75652074 PUSH1 0x0 DUP3 ADD MSTORE PUSH32 0x6F6F206869676800000000000000000000000000000000000000000000000000 PUSH1 0x20 DUP3 ADD MSTORE POP JUMP JUMPDEST PUSH1 0x0 PUSH2 0x1556 PUSH1 0x27 DUP4 PUSH2 0x1145 JUMP JUMPDEST SWAP2 POP PUSH2 0x1561 DUP3 PUSH2 0x14FA JUMP JUMPDEST PUSH1 0x40 DUP3 ADD SWAP1 POP SWAP2 SWAP1 POP JUMP JUMPDEST PUSH1 0x0 PUSH1 0x20 DUP3 ADD SWAP1 POP DUP2 DUP2 SUB PUSH1 0x0 DUP4 ADD MSTORE PUSH2 0x1585 DUP2 PUSH2 0x1549 JUMP JUMPDEST SWAP1 POP SWAP2 SWAP1 POP JUMP JUMPDEST DUP3 DUP2 DUP4 CALLDATACOPY PUSH1 0x0 DUP4 DUP4 ADD MSTORE POP POP POP JUMP JUMPDEST PUSH1 0x0 PUSH2 0x15A7 DUP4 DUP6 PUSH2 0x106B JUMP JUMPDEST SWAP4 POP PUSH2 0x15B4 DUP4 DUP6 DUP5 PUSH2 0x158C JUMP JUMPDEST PUSH2 0x15BD DUP4 PUSH2 0x10AF JUMP JUMPDEST DUP5 ADD SWAP1 POP SWAP4 SWAP3 POP POP POP JUMP JUMPDEST PUSH1 0x0 PUSH1 0xA0 DUP3 ADD SWAP1 POP DUP2 DUP2 SUB PUSH1 0x0 DUP4 ADD MSTORE PUSH2 0x15E3 DUP2 DUP11 DUP13 PUSH2 0x159B JUMP JUMPDEST SWAP1 POP DUP2 DUP2 SUB PUSH1 0x20 DUP4 ADD MSTORE PUSH2 0x15F8 DUP2 DUP9 DUP11 PUSH2 0x159B JUMP JUMPDEST SWAP1 POP DUP2 DUP2 SUB PUSH1 0x40 DUP4 ADD MSTORE PUSH2 0x160C DUP2 DUP8 PUSH2 0x10C0 JUMP JUMPDEST SWAP1 POP DUP2 DUP2 SUB PUSH1 0x60 DUP4 ADD MSTORE PUSH2 0x1621 DUP2 DUP6 DUP8 PUSH2 0x159B JUMP JUMPDEST SWAP1 POP DUP2 DUP2 SUB PUSH1 0x80 DUP4 ADD MSTORE PUSH2 0x1635 DUP2 DUP5 PUSH2 0x10C0 JUMP JUMPDEST SWAP1 POP SWAP10 SWAP9 POP POP POP POP POP POP POP POP POP JUMP JUMPDEST PUSH1 0x0 DUP2 SWAP1 POP SWAP3 SWAP2 POP POP JUMP JUMPDEST PUSH1 0x0 PUSH2 0x165B DUP4 DUP6 PUSH2 0x1644 JUMP JUMPDEST SWAP4 POP PUSH2 0x1668 DUP4 DUP6 DUP5 PUSH2 0x158C JUMP JUMPDEST DUP3 DUP5 ADD SWAP1 POP SWAP4 SWAP3 POP POP POP JUMP JUMPDEST PUSH1 0x0 PUSH32 0xFFFFFFFFFFFFFFFFFFFFFFFFFFFFFFFF00000000000000000000000000000000 DUP3 AND SWAP1 POP SWAP2 SWAP1 POP JUMP JUMPDEST PUSH1 0x0 DUP2 SWAP1 POP SWAP2 SWAP1 POP JUMP JUMPDEST PUSH2 0x16BB PUSH2 0x16B6 DUP3 PUSH2 0x1674 JUMP JUMPDEST PUSH2 0x16A0 JUMP JUMPDEST DUP3 MSTORE POP POP JUMP JUMPDEST PUSH1 0x0 PUSH2 0x16CE DUP3 DUP6 DUP8 PUSH2 0x164F JUMP JUMPDEST SWAP2 POP PUSH2 0x16DA DUP3 DUP5 PUSH2 0x16AA JUMP JUMPDEST PUSH1 0x10 DUP3 ADD SWAP2 POP DUP2 SWAP1 POP SWAP5 SWAP4 POP POP POP POP JUMP JUMPDEST PUSH1 0x0 PUSH2 0x16F6 DUP3 PUSH2 0x1060 JUMP JUMPDEST PUSH2 0x1700 DUP2 DUP6 PUSH2 0x1644 JUMP JUMPDEST SWAP4 POP PUSH2 0x1710 DUP2 DUP6 PUSH1 0x20 DUP7 ADD PUSH2 0x107C JUMP JUMPDEST DUP1 DUP5 ADD SWAP2 POP POP SWAP3 SWAP2 POP POP JUMP JUMPDEST PUSH1 0x0 PUSH2 0x1728 DUP3 DUP5 PUSH2 0x16EB JUMP JUMPDEST SWAP2 POP DUP2 SWAP1 POP SWAP3 SWAP2 POP POP JUMP JUMPDEST PUSH1 0x0 DUP2 MLOAD SWAP1 POP PUSH2 0x1742 DUP2 PUSH2 0xF6B JUMP JUMPDEST SWAP3 SWAP2 POP POP JUMP JUMPDEST PUSH1 0x0 PUSH1 0x20 DUP3 DUP5 SUB SLT ISZERO PUSH2 0x175E JUMPI PUSH2 0x175D PUSH2 0xE37 JUMP JUMPDEST JUMPDEST PUSH1 0x0 PUSH2 0x176C DUP5 DUP3 DUP6 ADD PUSH2 0x1733 JUMP JUMPDEST SWAP2 POP POP SWAP3 SWAP2 POP POP JUMP JUMPDEST PUSH1 0x0 DUP1 REVERT JUMPDEST PUSH1 0x0 DUP1 REVERT JUMPDEST PUSH1 0x0 DUP1 DUP6 DUP6 GT ISZERO PUSH2 0x1793 JUMPI PUSH2 0x1792 PUSH2 0x1775 JUMP JUMPDEST JUMPDEST DUP4 DUP7 GT ISZERO PUSH2 0x17A4 JUMPI PUSH2 0x17A3 PUSH2 0x177A JUMP JUMPDEST JUMPDEST PUSH1 0x1 DUP6 MUL DUP4 ADD SWAP2 POP DUP5 DUP7 SUB SWAP1 POP SWAP5 POP SWAP5 SWAP3 POP POP POP JUMP JUMPDEST PUSH1 0x0 PUSH2 0x17C7 DUP3 DUP5 DUP7 PUSH2 0x164F JUMP JUMPDEST SWAP2 POP DUP2 SWAP1 POP SWAP4 SWAP3 POP POP POP JUMP JUMPDEST PUSH1 0x0 DUP2 SWAP1 POP SWAP2 SWAP1 POP JUMP JUMPDEST PUSH2 0x17EE PUSH2 0x17E9 DUP3 PUSH2 0xF61 JUMP JUMPDEST PUSH2 0x17D3 JUMP JUMPDEST DUP3 MSTORE POP POP JUMP JUMPDEST PUSH1 0x0 PUSH2 0x1801 DUP3 DUP6 DUP8 PUSH2 0x164F JUMP JUMPDEST SWAP2 POP PUSH2 0x180D DUP3 DUP5 PUSH2 0x17DD JUMP JUMPDEST PUSH1 0x20 DUP3 ADD SWAP2 POP DUP2 SWAP1 POP SWAP5 SWAP4 POP POP POP POP JUMP JUMPDEST PUSH1 0x0 PUSH2 0x182A DUP3 DUP6 PUSH2 0x17DD JUMP JUMPDEST PUSH1 0x20 DUP3 ADD SWAP2 POP PUSH2 0x183A DUP3 DUP5 PUSH2 0x17DD JUMP JUMPDEST PUSH1 0x20 DUP3 ADD SWAP2 POP DUP2 SWAP1 POP SWAP4 SWAP3 POP POP POP JUMP JUMPDEST PUSH1 0x0 PUSH2 0x1856 DUP3 DUP7 PUSH2 0x17DD JUMP JUMPDEST PUSH1 0x20 DUP3 ADD SWAP2 POP PUSH2 0x1867 DUP3 DUP5 DUP7 PUSH2 0x164F JUMP JUMPDEST SWAP2 POP DUP2 SWAP1 POP SWAP5 SWAP4 POP POP POP POP JUMP JUMPDEST PUSH1 0x0 PUSH32 0xFFFFFFFFFFFFFFFFFFFFFFFFFFFFFFFFFFFFFFFFFFFFFFFF0000000000000000 DUP3 AND SWAP1 POP SWAP2 SWAP1 POP JUMP JUMPDEST PUSH1 0x0 DUP2 SWAP1 POP SWAP2 SWAP1 POP JUMP JUMPDEST PUSH2 0x18BB PUSH2 0x18B6 DUP3 PUSH2 0x1874 JUMP JUMPDEST PUSH2 0x18A0 JUMP JUMPDEST DUP3 MSTORE POP POP JUMP JUMPDEST PUSH1 0x0 PUSH2 0x18CD DUP3 DUP7 PUSH2 0x16EB JUMP JUMPDEST SWAP2 POP PUSH2 0x18D9 DUP3 DUP6 PUSH2 0x18AA JUMP JUMPDEST PUSH1 0x18 DUP3 ADD SWAP2 POP PUSH2 0x18E9 DUP3 DUP5 PUSH2 0x17DD JUMP JUMPDEST PUSH1 0x20 DUP3 ADD SWAP2 POP DUP2 SWAP1 POP SWAP5 SWAP4 POP POP POP POP JUMP JUMPDEST PUSH32 0x4465706F736974436F6E74726163743A207265636F6E73747275637465642044 PUSH1 0x0 DUP3 ADD MSTORE PUSH32 0x65706F7369744461746120646F6573206E6F74206D6174636820737570706C69 PUSH1 0x20 DUP3 ADD MSTORE PUSH32 0x6564206465706F7369745F646174615F726F6F74000000000000000000000000 PUSH1 0x40 DUP3 ADD MSTORE POP JUMP JUMPDEST PUSH1 0x0 PUSH2 0x197C PUSH1 0x54 DUP4 PUSH2 0x1145 JUMP JUMPDEST SWAP2 POP PUSH2 0x1987 DUP3 PUSH2 0x18FA JUMP JUMPDEST PUSH1 0x60 DUP3 ADD SWAP1 POP SWAP2 SWAP1 POP JUMP JUMPDEST PUSH1 0x0 PUSH1 0x20 DUP3 ADD SWAP1 POP DUP2 DUP2 SUB PUSH1 0x0 DUP4 ADD MSTORE PUSH2 0x19AB DUP2 PUSH2 0x196F JUMP JUMPDEST SWAP1 POP SWAP2 SWAP1 POP JUMP JUMPDEST PUSH1 0x0 DUP2 PUSH1 0x1 SHR SWAP1 POP SWAP2 SWAP1 POP JUMP JUMPDEST PUSH1 0x0 DUP1 DUP3 SWAP2 POP DUP4 SWAP1 POP JUMPDEST PUSH1 0x1 DUP6 GT ISZERO PUSH2 0x1A09 JUMPI DUP1 DUP7 DIV DUP2 GT ISZERO PUSH2 0x19E5 JUMPI PUSH2 0x19E4 PUSH2 0x149A JUMP JUMPDEST JUMPDEST PUSH1 0x1 DUP6 AND ISZERO PUSH2 0x19F4 JUMPI DUP1 DUP3 MUL SWAP2 POP JUMPDEST DUP1 DUP2 MUL SWAP1 POP PUSH2 0x1A02 DUP6 PUSH2 0x19B2 JUMP JUMPDEST SWAP5 POP PUSH2 0x19C9 JUMP JUMPDEST SWAP5 POP SWAP5 SWAP3 POP POP POP JUMP JUMPDEST PUSH1 0x0 DUP3 PUSH2 0x1A22 JUMPI PUSH1 0x1 SWAP1 POP PUSH2 0x1ADE JUMP JUMPDEST DUP2 PUSH2 0x1A30 JUMPI PUSH1 0x0 SWAP1 POP PUSH2 0x1ADE JUMP JUMPDEST DUP2 PUSH1 0x1 DUP2 EQ PUSH2 0x1A46 JUMPI PUSH1 0x2 DUP2 EQ PUSH2 0x1A50 JUMPI PUSH2 0x1A7F JUMP JUMPDEST PUSH1 0x1 SWAP2 POP POP PUSH2 0x1ADE JUMP JUMPDEST PUSH1 0xFF DUP5 GT ISZERO PUSH2 0x1A62 JUMPI PUSH2 0x1A61 PUSH2 0x149A JUMP JUMPDEST JUMPDEST DUP4 PUSH1 0x2 EXP SWAP2 POP DUP5 DUP3 GT ISZERO PUSH2 0x1A79 JUMPI PUSH2 0x1A78 PUSH2 0x149A JUMP JUMPDEST JUMPDEST POP PUSH2 0x1ADE JUMP JUMPDEST POP PUSH1 0x20 DUP4 LT PUSH2 0x133 DUP4 LT AND PUSH1 0x4E DUP5 LT PUSH1 0xB DUP5 LT AND OR ISZERO PUSH2 0x1AB4 JUMPI DUP3 DUP3 EXP SWAP1 POP DUP4 DUP2 GT ISZERO PUSH2 0x1AAF JUMPI PUSH2 0x1AAE PUSH2 0x149A JUMP JUMPDEST JUMPDEST PUSH2 0x1ADE JUMP JUMPDEST PUSH2 0x1AC1 DUP5 DUP5 DUP5 PUSH1 0x1 PUSH2 0x19BF JUMP JUMPDEST SWAP3 POP SWAP1 POP DUP2 DUP5 DIV DUP2 GT ISZERO PUSH2 0x1AD8 JUMPI PUSH2 0x1AD7 PUSH2 0x149A JUMP JUMPDEST JUMPDEST DUP2 DUP2 MUL SWAP1 POP JUMPDEST SWAP4 SWAP3 POP POP POP JUMP JUMPDEST PUSH1 0x0 PUSH2 0x1AF0 DUP3 PUSH2 0x139E JUMP JUMPDEST SWAP2 POP PUSH2 0x1AFB DUP4 PUSH2 0x139E JUMP JUMPDEST SWAP3 POP PUSH2 0x1B28 PUSH32 0xFFFFFFFFFFFFFFFFFFFFFFFFFFFFFFFFFFFFFFFFFFFFFFFFFFFFFFFFFFFFFFFF DUP5 DUP5 PUSH2 0x1A12 JUMP JUMPDEST SWAP1 POP SWAP3 SWAP2 POP POP JUMP JUMPDEST PUSH1 0x0 PUSH2 0x1B3B DUP3 PUSH2 0x139E JUMP JUMPDEST SWAP2 POP PUSH2 0x1B46 DUP4 PUSH2 0x139E JUMP JUMPDEST SWAP3 POP DUP3 DUP3 LT ISZERO PUSH2 0x1B59 JUMPI PUSH2 0x1B58 PUSH2 0x149A JUMP JUMPDEST JUMPDEST DUP3 DUP3 SUB SWAP1 POP SWAP3 SWAP2 POP POP JUMP JUMPDEST PUSH32 0x4465706F736974436F6E74726163743A206D65726B6C6520747265652066756C PUSH1 0x0 DUP3 ADD MSTORE PUSH32 0x6C00000000000000000000000000000000000000000000000000000000000000 PUSH1 0x20 DUP3 ADD MSTORE POP JUMP JUMPDEST PUSH1 0x0 PUSH2 0x1BC0 PUSH1 0x21 DUP4 PUSH2 0x1145 JUMP JUMPDEST SWAP2 POP PUSH2 0x1BCB DUP3 PUSH2 0x1B64 JUMP JUMPDEST PUSH1 0x40 DUP3 ADD SWAP1 POP SWAP2 SWAP1 POP JUMP JUMPDEST PUSH1 0x0 PUSH1 0x20 DUP3 ADD SWAP1 POP DUP2 DUP2 SUB PUSH1 0x0 DUP4 ADD MSTORE PUSH2 0x1BEF DUP2 PUSH2 0x1BB3 JUMP JUMPDEST SWAP1 POP SWAP2 SWAP1 POP JUMP JUMPDEST PUSH1 0x0 PUSH2 0x1C01 DUP3 PUSH2 0x139E JUMP JUMPDEST SWAP2 POP PUSH2 0x1C0C DUP4 PUSH2 0x139E JUMP JUMPDEST SWAP3 POP DUP3 PUSH32 0xFFFFFFFFFFFFFFFFFFFFFFFFFFFFFFFFFFFFFFFFFFFFFFFFFFFFFFFFFFFFFFFF SUB DUP3 GT ISZERO PUSH2 0x1C41 JUMPI PUSH2 0x1C40 PUSH2 0x149A JUMP JUMPDEST JUMPDEST DUP3 DUP3 ADD SWAP1 POP SWAP3 SWAP2 POP POP JUMP JUMPDEST PUSH32 0x4E487B7100000000000000000000000000000000000000000000000000000000 PUSH1 0x0 MSTORE PUSH1 0x32 PUSH1 0x4 MSTORE PUSH1 0x24 PUSH1 0x0 REVERT JUMPDEST PUSH1 0x0 PUSH2 0x1C86 DUP3 PUSH2 0x139E JUMP JUMPDEST SWAP2 POP PUSH32 0xFFFFFFFFFFFFFFFFFFFFFFFFFFFFFFFFFFFFFFFFFFFFFFFFFFFFFFFFFFFFFFFF DUP3 EQ ISZERO PUSH2 0x1CB9 JUMPI PUSH2 0x1CB8 PUSH2 0x149A JUMP JUMPDEST JUMPDEST PUSH1 0x1 DUP3 ADD SWAP1 POP SWAP2 SWAP1 POP JUMP JUMPDEST PUSH32 0x4E487B7100000000000000000000000000000000000000000000000000000000 PUSH1 0x0 MSTORE PUSH1 0x1 PUSH1 0x4 MSTORE PUSH1 0x24 PUSH1 0x0 REVERT JUMPDEST PUSH1 0x0 PUSH2 0x1CFF DUP3 DUP7 PUSH2 0x17DD JUMP JUMPDEST PUSH1 0x20 DUP3 ADD SWAP2 POP PUSH2 0x1D0F DUP3 DUP6 PUSH2 0x16EB JUMP JUMPDEST SWAP2 POP PUSH2 0x1D1B DUP3 DUP5 PUSH2 0x18AA JUMP JUMPDEST PUSH1 0x18 DUP3 ADD SWAP2 POP DUP2 SWAP1 POP SWAP5 SWAP4 POP POP POP POP JUMP JUMPDEST PUSH32 0x4E487B7100000000000000000000000000000000000000000000000000000000 PUSH1 0x0 MSTORE PUSH1 0x41 PUSH1 0x4 MSTORE PUSH1 0x24 PUSH1 0x0 REVERT INVALID LOG2 PUSH5 0x6970667358 0x22 SLT KECCAK256 PUSH21 0xD28DFD3C6E869430BFFE3E61EC85077599FD850180 CODECOPY 0x4B INVALID PUSH14 0x2F1CD2AECAA464736F6C63430008 MULMOD STOP CALLER "},"methodIdentifiers":{"deposit(bytes,bytes,bytes,bytes32)":"22895118","get_deposit_count()":"621fd130","get_deposit_root()":"c5f2892f","supportsInterface(bytes4)":"01ffc9a7"}}}}}