{
  "_format": "hh-sol-artifact-1",
  "contractName": "DepositContract",
  "sourceName": "contracts/deposit_contract.sol",
  "abi": [
    {
      "inputs": [],
      "stateMutability": "nonpayable",
      "type": "constructor"
    },
    {
      "anonymous": false,
      "inputs": [
        {
          "indexed": false,
          "internalType": "bytes",
          "name": "pubkey",
          "type": "bytes"
        },
        {
          "indexed": false,
          "internalType": "bytes",
          "name": "withdrawal_credentials",
          "type": "bytes"
        },
        {
          "indexed": false,
          "internalType": "bytes",
          "name": "amount",
          "type": "bytes"
        },
        {
          "indexed": false,
          "internalType": "bytes",
          "name": "signature",
          "type": "bytes"
        },
        {
          "indexed": false,
          "internalType": "bytes",
          "name": "index",
          "type": "bytes"
        }
      ],
      "name": "DepositEvent",
      "type": "event"
    },
    {
      "inputs": [
        {
          "internalType": "bytes",
          "name": "pubkey",
          "type": "bytes"
        },
        {
          "internalType": "bytes",
          "name": "withdrawal_credentials",
          "type": "bytes"
        },
        {
          "internalType": "bytes",
          "name": "signature",
          "type": "bytes"
        },
        {
          "internalType": "bytes32",
          "name": "deposit_data_root",
          "type": "bytes32"
        }
      ],
      "name": "deposit",
      "outputs": [],
      "stateMutability": "payable",
      "type": "function"
    },
    {
      "inputs": [],
      "name": "get_deposit_count",
      "outputs": [
        {
          "internalType": "bytes",
          "name": "",
          "type": "bytes"
        }
      ],
      "stateMutability": "view",
      "type": "function"
    },
    {
      "inputs": [],
      "name": "get_deposit_root",
      "outputs": [
        {
          "internalType": "bytes32",
          "name": "",
          "type": "bytes32"
        }
      ],
      "stateMutability": "view",
      "type": "function"
    },
    {
      "inputs": [
        {
          "internalType": "bytes4",
          "name": "interfaceId",
          "type": "bytes4"
        }
      ],
      "name": "supportsInterface",
      "outputs": [
        {
          "internalType": "bool",
          "name": "",
          "type": "bool"
        }
      ],
      "stateMutability": "pure",
      "type": "function"
    }
  ],
  "bytecode": "0x60806040523480156200001157600080fd5b5060005b6001602062000025919062000155565b811015620001155760026021826020811062000046576200004562000190565b5b0154602183602081106200005f576200005e62000190565b5b015460405160200162000074929190620001ee565b604051602081830303815290604052604051620000929190620002a1565b602060405180830381855afa158015620000b0573d6000803e3d6000fd5b5050506040513d601f19601f82011682018060405250810190620000d59190620002f0565b6021600183620000e6919062000322565b60208110620000fa57620000f962000190565b5b018190555080806200010c906200037f565b91505062000015565b50620003cd565b6000819050919050565b7f4e487b7100000000000000000000000000000000000000000000000000000000600052601160045260246000fd5b600062000162826200011c565b91506200016f836200011c565b92508282101562000185576200018462000126565b5b828203905092915050565b7f4e487b7100000000000000000000000000000000000000000000000000000000600052603260045260246000fd5b6000819050919050565b6000819050919050565b620001e8620001e282620001bf565b620001c9565b82525050565b6000620001fc8285620001d3565b6020820191506200020e8284620001d3565b6020820191508190509392505050565b600081519050919050565b600081905092915050565b60005b838110156200025457808201518184015260208101905062000237565b8381111562000264576000848401525b50505050565b600062000277826200021e565b62000283818562000229565b93506200029581856020860162000234565b80840191505092915050565b6000620002af82846200026a565b915081905092915050565b600080fd5b620002ca81620001bf565b8114620002d657600080fd5b50565b600081519050620002ea81620002bf565b92915050565b600060208284031215620003095762000308620002ba565b5b60006200031984828501620002d9565b91505092915050565b60006200032f826200011c565b91506200033c836200011c565b9250827fffffffffffffffffffffffffffffffffffffffffffffffffffffffffffffffff0382111562000374576200037362000126565b5b828201905092915050565b60006200038c826200011c565b91507fffffffffffffffffffffffffffffffffffffffffffffffffffffffffffffffff821415620003c257620003c162000126565b5b600182019050919050565b611d9180620003dd6000396000f3fe60806040526004361061003f5760003560e01c806301ffc9a7146100445780632289511814610081578063621fd1301461009d578063c5f2892f146100c8575b600080fd5b34801561005057600080fd5b5061006b60048036038101906100669190610e99565b6100f3565b6040516100789190610ee1565b60405180910390f35b61009b60048036038101906100969190610f97565b6101c5565b005b3480156100a957600080fd5b506100b261090b565b6040516100bf91906110f9565b60405180910390f35b3480156100d457600080fd5b506100dd61091d565b6040516100ea919061112a565b60405180910390f35b60007f01ffc9a7000000000000000000000000000000000000000000000000000000007bffffffffffffffffffffffffffffffffffffffffffffffffffffffff1916827bffffffffffffffffffffffffffffffffffffffffffffffffffffffff191614806101be57507f85640907000000000000000000000000000000000000000000000000000000007bffffffffffffffffffffffffffffffffffffffffffffffffffffffff1916827bffffffffffffffffffffffffffffffffffffffffffffffffffffffff1916145b9050919050565b6030878790501461020b576040517f08c379a0000000000000000000000000000000000000000000000000000000008152600401610202906111c8565b60405180910390fd5b60208585905014610251576040517f08c379a00000000000000000000000000000000000000000000000000000000081526004016102489061125a565b60405180910390fd5b60608383905014610297576040517f08c379a000000000000000000000000000000000000000000000000000000000815260040161028e906112ec565b60405180910390fd5b670de0b6b3a76400003410156102e2576040517f08c379a00000000000000000000000000000000000000000000000000000000081526004016102d99061137e565b60405180910390fd5b6000633b9aca00346102f491906113d7565b14610334576040517f08c379a000000000000000000000000000000000000000000000000000000000815260040161032b9061147a565b60405180910390fd5b6000633b9aca003461034691906114c9565b905067ffffffffffffffff8016811115610395576040517f08c379a000000000000000000000000000000000000000000000000000000000815260040161038c9061156c565b60405180910390fd5b60006103a082610aff565b90507f649bbc62d0e31342afea4e5cd82d4049e7e1ee912fc0889aa790803be39038c589898989858a8a6103d5602054610aff565b6040516103e99897969594939291906115c8565b60405180910390a1600060028a8a600060801b60405160200161040e939291906116c1565b60405160208183030381529060405260405161042a919061171c565b602060405180830381855afa158015610447573d6000803e3d6000fd5b5050506040513d601f19601f8201168201806040525081019061046a9190611748565b9050600060028088886000906040926104859392919061177f565b6040516020016104969291906117ba565b6040516020818303038152906040526040516104b2919061171c565b602060405180830381855afa1580156104cf573d6000803e3d6000fd5b5050506040513d601f19601f820116820180604052508101906104f29190611748565b6002898960409080926105079392919061177f565b6000801b60405160200161051d939291906117f4565b604051602081830303815290604052604051610539919061171c565b602060405180830381855afa158015610556573d6000803e3d6000fd5b5050506040513d601f19601f820116820180604052508101906105799190611748565b60405160200161058a92919061181e565b6040516020818303038152906040526040516105a6919061171c565b602060405180830381855afa1580156105c3573d6000803e3d6000fd5b5050506040513d601f19601f820116820180604052508101906105e69190611748565b90506000600280848c8c6040516020016106029392919061184a565b60405160208183030381529060405260405161061e919061171c565b602060405180830381855afa15801561063b573d6000803e3d6000fd5b5050506040513d601f19601f8201168201806040525081019061065e9190611748565b600286600060401b86604051602001610679939291906118c1565b604051602081830303815290604052604051610695919061171c565b602060405180830381855afa1580156106b2573d6000803e3d6000fd5b5050506040513d601f19601f820116820180604052508101906106d59190611748565b6040516020016106e692919061181e565b604051602081830303815290604052604051610702919061171c565b602060405180830381855afa15801561071f573d6000803e3d6000fd5b5050506040513d601f19601f820116820180604052508101906107429190611748565b9050858114610786576040517f08c379a000000000000000000000000000000000000000000000000000000000815260040161077d90611992565b60405180910390fd5b6001602060026107969190611ae5565b6107a09190611b30565b602054106107e3576040517f08c379a00000000000000000000000000000000000000000000000000000000081526004016107da90611bd6565b60405180910390fd5b6001602060008282546107f69190611bf6565b925050819055506000602054905060005b60208110156108eb57600180831614156108415782600082602081106108305761082f611c4c565b5b018190555050505050505050610902565b60026000826020811061085757610856611c4c565b5b01548460405160200161086b92919061181e565b604051602081830303815290604052604051610887919061171c565b602060405180830381855afa1580156108a4573d6000803e3d6000fd5b5050506040513d601f19601f820116820180604052508101906108c79190611748565b92506002826108d691906114c9565b915080806108e390611c7b565b915050610807565b5060006108fb576108fa611cc4565b5b5050505050505b50505050505050565b6060610918602054610aff565b905090565b6000806000602054905060005b6020811015610a7657600180831614156109cb5760026000826020811061095457610953611c4c565b5b01548460405160200161096892919061181e565b604051602081830303815290604052604051610984919061171c565b602060405180830381855afa1580156109a1573d6000803e3d6000fd5b5050506040513d601f19601f820116820180604052508101906109c49190611748565b9250610a54565b600283602183602081106109e2576109e1611c4c565b5b01546040516020016109f592919061181e565b604051602081830303815290604052604051610a11919061171c565b602060405180830381855afa158015610a2e573d6000803e3d6000fd5b5050506040513d601f19601f82011682018060405250810190610a519190611748565b92505b600282610a6191906114c9565b91508080610a6e90611c7b565b91505061092a565b50600282610a85602054610aff565b600060401b604051602001610a9c93929190611cf3565b604051602081830303815290604052604051610ab8919061171c565b602060405180830381855afa158015610ad5573d6000803e3d6000fd5b5050506040513d601f19601f82011682018060405250810190610af89190611748565b9250505090565b6060600867ffffffffffffffff811115610b1c57610b1b611d2c565b5b6040519080825280601f01601f191660200182016040528015610b4e5781602001600182028036833780820191505090505b50905060008260c01b905080600760088110610b6d57610b6c611c4c565b5b1a60f81b82600081518110610b8557610b84611c4c565b5b60200101907effffffffffffffffffffffffffffffffffffffffffffffffffffffffffffff1916908160001a90535080600660088110610bc857610bc7611c4c565b5b1a60f81b82600181518110610be057610bdf611c4c565b5b60200101907effffffffffffffffffffffffffffffffffffffffffffffffffffffffffffff1916908160001a90535080600560088110610c2357610c22611c4c565b5b1a60f81b82600281518110610c3b57610c3a611c4c565b5b60200101907effffffffffffffffffffffffffffffffffffffffffffffffffffffffffffff1916908160001a90535080600460088110610c7e57610c7d611c4c565b5b1a60f81b82600381518110610c9657610c95611c4c565b5b60200101907effffffffffffffffffffffffffffffffffffffffffffffffffffffffffffff1916908160001a90535080600360088110610cd957610cd8611c4c565b5b1a60f81b82600481518110610cf157610cf0611c4c565b5b60200101907effffffffffffffffffffffffffffffffffffffffffffffffffffffffffffff1916908160001a90535080600260088110610d3457610d33611c4c565b5b1a60f81b82600581518110610d4c57610d4b611c4c565b5b60200101907effffffffffffffffffffffffffffffffffffffffffffffffffffffffffffff1916908160001a90535080600160088110610d8f57610d8e611c4c565b5b1a60f81b82600681518110610da757610da6611c4c565b5b60200101907effffffffffffffffffffffffffffffffffffffffffffffffffffffffffffff1916908160001a90535080600060088110610dea57610de9611c4c565b5b1a60f81b82600781518110610e0257610e01611c4c565b5b60200101907effffffffffffffffffffffffffffffffffffffffffffffffffffffffffffff1916908160001a90535050919050565b600080fd5b600080fd5b60007fffffffff0000000000000000000000000000000000000000000000000000000082169050919050565b610e7681610e41565b8114610e8157600080fd5b50565b600081359050610e9381610e6d565b92915050565b600060208284031215610eaf57610eae610e37565b5b6000610ebd84828501610e84565b91505092915050565b60008115159050919050565b610edb81610ec6565b82525050565b6000602082019050610ef66000830184610ed2565b92915050565b600080fd5b600080fd5b600080fd5b60008083601f840112610f2157610f20610efc565b5b8235905067ffffffffffffffff811115610f3e57610f3d610f01565b5b602083019150836001820283011115610f5a57610f59610f06565b5b9250929050565b6000819050919050565b610f7481610f61565b8114610f7f57600080fd5b50565b600081359050610f9181610f6b565b92915050565b60008060008060008060006080888a031215610fb657610fb5610e37565b5b600088013567ffffffffffffffff811115610fd457610fd3610e3c565b5b610fe08a828b01610f0b565b9750975050602088013567ffffffffffffffff81111561100357611002610e3c565b5b61100f8a828b01610f0b565b9550955050604088013567ffffffffffffffff81111561103257611031610e3c565b5b61103e8a828b01610f0b565b935093505060606110518a828b01610f82565b91505092959891949750929550565b600081519050919050565b600082825260208201905092915050565b60005b8381101561109a57808201518184015260208101905061107f565b838111156110a9576000848401525b50505050565b6000601f19601f8301169050919050565b60006110cb82611060565b6110d5818561106b565b93506110e581856020860161107c565b6110ee816110af565b840191505092915050565b6000602082019050818103600083015261111381846110c0565b905092915050565b61112481610f61565b82525050565b600060208201905061113f600083018461111b565b92915050565b600082825260208201905092915050565b7f4465706f736974436f6e74726163743a20696e76616c6964207075626b65792060008201527f6c656e6774680000000000000000000000000000000000000000000000000000602082015250565b60006111b2602683611145565b91506111bd82611156565b604082019050919050565b600060208201905081810360008301526111e1816111a5565b9050919050565b7f4465706f736974436f6e74726163743a20696e76616c6964207769746864726160008201527f77616c5f63726564656e7469616c73206c656e67746800000000000000000000602082015250565b6000611244603683611145565b915061124f826111e8565b604082019050919050565b6000602082019050818103600083015261127381611237565b9050919050565b7f4465706f736974436f6e74726163743a20696e76616c6964207369676e61747560008201527f7265206c656e6774680000000000000000000000000000000000000000000000602082015250565b60006112d6602983611145565b91506112e18261127a565b604082019050919050565b60006020820190508181036000830152611305816112c9565b9050919050565b7f4465706f736974436f6e74726163743a206465706f7369742076616c7565207460008201527f6f6f206c6f770000000000000000000000000000000000000000000000000000602082015250565b6000611368602683611145565b91506113738261130c565b604082019050919050565b600060208201905081810360008301526113978161135b565b9050919050565b6000819050919050565b7f4e487b7100000000000000000000000000000000000000000000000000000000600052601260045260246000fd5b60006113e28261139e565b91506113ed8361139e565b9250826113fd576113fc6113a8565b5b828206905092915050565b7f4465706f736974436f6e74726163743a206465706f7369742076616c7565206e60008201527f6f74206d756c7469706c65206f66206777656900000000000000000000000000602082015250565b6000611464603383611145565b915061146f82611408565b604082019050919050565b6000602082019050818103600083015261149381611457565b9050919050565b7f4e487b7100000000000000000000000000000000000000000000000000000000600052601160045260246000fd5b60006114d48261139e565b91506114df8361139e565b9250826114ef576114ee6113a8565b5b828204905092915050565b7f4465706f736974436f6e74726163743a206465706f7369742076616c7565207460008201527f6f6f206869676800000000000000000000000000000000000000000000000000602082015250565b6000611556602783611145565b9150611561826114fa565b604082019050919050565b6000602082019050818103600083015261158581611549565b9050919050565b82818337600083830152505050565b60006115a7838561106b565b93506115b483858461158c565b6115bd836110af565b840190509392505050565b600060a08201905081810360008301526115e3818a8c61159b565b905081810360208301526115f881888a61159b565b9050818103604083015261160c81876110c0565b9050818103606083015261162181858761159b565b9050818103608083015261163581846110c0565b90509998505050505050505050565b600081905092915050565b600061165b8385611644565b935061166883858461158c565b82840190509392505050565b60007fffffffffffffffffffffffffffffffff0000000000000000000000000000000082169050919050565b6000819050919050565b6116bb6116b682611674565b6116a0565b82525050565b60006116ce82858761164f565b91506116da82846116aa565b601082019150819050949350505050565b60006116f682611060565b6117008185611644565b935061171081856020860161107c565b80840191505092915050565b600061172882846116eb565b915081905092915050565b60008151905061174281610f6b565b92915050565b60006020828403121561175e5761175d610e37565b5b600061176c84828501611733565b91505092915050565b600080fd5b600080fd5b6000808585111561179357611792611775565b5b838611156117a4576117a361177a565b5b6001850283019150848603905094509492505050565b60006117c782848661164f565b91508190509392505050565b6000819050919050565b6117ee6117e982610f61565b6117d3565b82525050565b600061180182858761164f565b915061180d82846117dd565b602082019150819050949350505050565b600061182a82856117dd565b60208201915061183a82846117dd565b6020820191508190509392505050565b600061185682866117dd565b60208201915061186782848661164f565b9150819050949350505050565b60007fffffffffffffffffffffffffffffffffffffffffffffffff000000000000000082169050919050565b6000819050919050565b6118bb6118b682611874565b6118a0565b82525050565b60006118cd82866116eb565b91506118d982856118aa565b6018820191506118e982846117dd565b602082019150819050949350505050565b7f4465706f736974436f6e74726163743a207265636f6e7374727563746564204460008201527f65706f7369744461746120646f6573206e6f74206d6174636820737570706c6960208201527f6564206465706f7369745f646174615f726f6f74000000000000000000000000604082015250565b600061197c605483611145565b9150611987826118fa565b606082019050919050565b600060208201905081810360008301526119ab8161196f565b9050919050565b60008160011c9050919050565b6000808291508390505b6001851115611a09578086048111156119e5576119e461149a565b5b60018516156119f45780820291505b8081029050611a02856119b2565b94506119c9565b94509492505050565b600082611a225760019050611ade565b81611a305760009050611ade565b8160018114611a465760028114611a5057611a7f565b6001915050611ade565b60ff841115611a6257611a6161149a565b5b8360020a915084821115611a7957611a7861149a565b5b50611ade565b5060208310610133831016604e8410600b8410161715611ab45782820a905083811115611aaf57611aae61149a565b5b611ade565b611ac184848460016119bf565b92509050818404811115611ad857611ad761149a565b5b81810290505b9392505050565b6000611af08261139e565b9150611afb8361139e565b9250611b287fffffffffffffffffffffffffffffffffffffffffffffffffffffffffffffffff8484611a12565b905092915050565b6000611b3b8261139e565b9150611b468361139e565b925082821015611b5957611b5861149a565b5b828203905092915050565b7f4465706f736974436f6e74726163743a206d65726b6c6520747265652066756c60008201527f6c00000000000000000000000000000000000000000000000000000000000000602082015250565b6000611bc0602183611145565b9150611bcb82611b64565b604082019050919050565b60006020820190508181036000830152611bef81611bb3565b9050919050565b6000611c018261139e565b9150611c0c8361139e565b9250827fffffffffffffffffffffffffffffffffffffffffffffffffffffffffffffffff03821115611c4157611c4061149a565b5b828201905092915050565b7f4e487b7100000000000000000000000000000000000000000000000000000000600052603260045260246000fd5b6000611c868261139e565b91507fffffffffffffffffffffffffffffffffffffffffffffffffffffffffffffffff821415611cb957611cb861149a565b5b600182019050919050565b7f4e487b7100000000000000000000000000000000000000000000000000000000600052600160045260246000fd5b6000611cff82866117dd565b602082019150611d0f82856116eb565b9150611d1b82846118aa565b601882019150819050949350505050565b7f4e487b7100000000000000000000000000000000000000000000000000000000600052604160045260246000fdfea264697066735822122074d28dfd3c6e869430bffe3e61ec85077599fd850180394bfe6d2f1cd2aecaa464736f6c63430008090033",
  "linkReferences": {},
  "deployedLinkReferences": {}
}