{
  "_format": "hh-sol-artifact-1",
  "contractName": "Counter",
  "sourceName": "contracts/counter.sol",
  "abi": [
    {
      "inputs": [
        {
          "internalType": "uint256",
          "name": "_initialNum",
          "type": "uint256"
        }
      ],
      "stateMutability": "payable",
      "type": "constructor"
    },
    {
      "inputs": [],
      "name": "count",
      "outputs": [
        {
          "internalType": "uint256",
          "name": "",
          "type": "uint256"
        }
      ],
      "stateMutability": "view",
      "type": "function"
    },
    {
      "inputs": [],
      "name": "decrease",
      "outputs": [],
      "stateMutability": "nonpayable",
      "type": "function"
    },
    {
      "inputs": [],
      "name": "increase",
      "outputs": [],
      "stateMutability": "nonpayable",
      "type": "function"
    },
    {
      "inputs": [],
      "name": "owner",
      "outputs": [
        {
          "internalType": "address payable",
          "name": "",
          "type": "address"
        }
      ],
      "stateMutability": "view",
      "type": "function"
    },
    {
      "inputs": [],
      "name": "showNum",
      "outputs": [
        {
          "internalType": "uint256",
          "name": "",
          "type": "uint256"
        }
      ],
      "stateMutability": "view",
      "type": "function"
    }
  ],
  "bytecode": "0x60806040526040516107bb3803806107bb833981810160405281019061002591906100ae565b8060008190555033600160006101000a81548173ffffffffffffffffffffffffffffffffffffffff021916908373ffffffffffffffffffffffffffffffffffffffff160217905550506100db565b600080fd5b6000819050919050565b61008b81610078565b811461009657600080fd5b50565b6000815190506100a881610082565b92915050565b6000602082840312156100c4576100c3610073565b5b60006100d284828501610099565b91505092915050565b6106d1806100ea6000396000f3fe608060405234801561001057600080fd5b50600436106100575760003560e01c806306661abd1461005c5780631c8763e11461007a5780638da5cb5b14610098578063d732d955146100b6578063e8927fbc146100c0575b600080fd5b6100646100ca565b604051610071919061042b565b60405180910390f35b6100826100d0565b60405161008f919061042b565b60405180910390f35b6100a0610118565b6040516100ad9190610487565b60405180910390f35b6100be61013e565b005b6100c861021c565b005b60005481565b60006101106040518060400160405280601181526020017f73686f77696e67206e756d6265722e2e2e0000000000000000000000000000008152506102b4565b600054905090565b600160009054906101000a900473ffffffffffffffffffffffffffffffffffffffff1681565b60016000541015610184576040517f08c379a000000000000000000000000000000000000000000000000000000000815260040161017b906104ff565b60405180910390fd5b6101c26040518060400160405280601381526020017f70726f63656564696e67206465637265617365000000000000000000000000008152506102b4565b6000808154809291906101d49061054e565b919050555061021a6040518060400160405280601081526020017f63757272656e74206e756d626572203a0000000000000000000000000000000081525060005461034d565b565b61025a6040518060400160405280601381526020017f70726f63656564696e6720696e637265617365000000000000000000000000008152506102b4565b60008081548092919061026c90610578565b91905055506102b26040518060400160405280601081526020017f63757272656e74206e756d626572203a0000000000000000000000000000000081525060005461034d565b565b61034a816040516024016102c89190610649565b6040516020818303038152906040527f41304fac000000000000000000000000000000000000000000000000000000007bffffffffffffffffffffffffffffffffffffffffffffffffffffffff19166020820180517bffffffffffffffffffffffffffffffffffffffffffffffffffffffff83818316178352505050506103e9565b50565b6103e5828260405160240161036392919061066b565b6040516020818303038152906040527fb60e72cc000000000000000000000000000000000000000000000000000000007bffffffffffffffffffffffffffffffffffffffffffffffffffffffff19166020820180517bffffffffffffffffffffffffffffffffffffffffffffffffffffffff83818316178352505050506103e9565b5050565b60008151905060006a636f6e736f6c652e6c6f679050602083016000808483855afa5050505050565b6000819050919050565b61042581610412565b82525050565b6000602082019050610440600083018461041c565b92915050565b600073ffffffffffffffffffffffffffffffffffffffff82169050919050565b600061047182610446565b9050919050565b61048181610466565b82525050565b600060208201905061049c6000830184610478565b92915050565b600082825260208201905092915050565b7f63616e6e6f74206265206e65676174697665206e756d62657200000000000000600082015250565b60006104e96019836104a2565b91506104f4826104b3565b602082019050919050565b60006020820190508181036000830152610518816104dc565b9050919050565b7f4e487b7100000000000000000000000000000000000000000000000000000000600052601160045260246000fd5b600061055982610412565b9150600082141561056d5761056c61051f565b5b600182039050919050565b600061058382610412565b91507fffffffffffffffffffffffffffffffffffffffffffffffffffffffffffffffff8214156105b6576105b561051f565b5b600182019050919050565b600081519050919050565b60005b838110156105ea5780820151818401526020810190506105cf565b838111156105f9576000848401525b50505050565b6000601f19601f8301169050919050565b600061061b826105c1565b61062581856104a2565b93506106358185602086016105cc565b61063e816105ff565b840191505092915050565b600060208201905081810360008301526106638184610610565b905092915050565b600060408201905081810360008301526106858185610610565b9050610694602083018461041c565b939250505056fea264697066735822122058e1df13399083e4ccc47253e52388107042baa8a6d16f5698bded81ee74a86664736f6c63430008090033",
  "linkReferences": {},
  "deployedLinkReferences": {}
}