{
  "_format": "hh-sol-artifact-1",
  "contractName": "Counter",
  "sourceName": "contracts/counter.sol",
  "abi": [
    {
      "inputs": [
        {
          "internalType": "uint256",
          "name": "_initialNum",
          "type": "uint256"
        }
      ],
      "stateMutability": "payable",
      "type": "constructor"
    },
    {
      "inputs": [],
      "name": "count",
      "outputs": [
        {
          "internalType": "uint256",
          "name": "",
          "type": "uint256"
        }
      ],
      "stateMutability": "view",
      "type": "function"
    },
    {
      "inputs": [],
      "name": "decrease",
      "outputs": [],
      "stateMutability": "nonpayable",
      "type": "function"
    },
    {
      "inputs": [],
      "name": "increase",
      "outputs": [],
      "stateMutability": "nonpayable",
      "type": "function"
    },
    {
      "inputs": [],
      "name": "owner",
      "outputs": [
        {
          "internalType": "address payable",
          "name": "",
          "type": "address"
        }
      ],
      "stateMutability": "view",
      "type": "function"
    },
    {
      "inputs": [],
      "name": "showNum",
      "outputs": [
        {
          "internalType": "uint256",
          "name": "",
          "type": "uint256"
        }
      ],
      "stateMutability": "view",
      "type": "function"
    }
  ],
  "bytecode": "0x6080604052604051610444380380610444833981810160405281019061002591906100ae565b8060008190555033600160006101000a81548173ffffffffffffffffffffffffffffffffffffffff021916908373ffffffffffffffffffffffffffffffffffffffff160217905550506100db565b600080fd5b6000819050919050565b61008b81610078565b811461009657600080fd5b50565b6000815190506100a881610082565b92915050565b6000602082840312156100c4576100c3610073565b5b60006100d284828501610099565b91505092915050565b61035a806100ea6000396000f3fe608060405234801561001057600080fd5b50600436106100575760003560e01c806306661abd1461005c5780631c8763e11461007a5780638da5cb5b14610098578063d732d955146100b6578063e8927fbc146100c0575b600080fd5b6100646100ca565b6040516100719190610190565b60405180910390f35b6100826100d0565b60405161008f9190610190565b60405180910390f35b6100a06100d9565b6040516100ad91906101ec565b60405180910390f35b6100be6100ff565b005b6100c861015e565b005b60005481565b60008054905090565b600160009054906101000a900473ffffffffffffffffffffffffffffffffffffffff1681565b60016000541015610145576040517f08c379a000000000000000000000000000000000000000000000000000000000815260040161013c90610264565b60405180910390fd5b600080815480929190610157906102b3565b9190505550565b600080815480929190610170906102dc565b9190505550565b6000819050919050565b61018a81610177565b82525050565b60006020820190506101a56000830184610181565b92915050565b600073ffffffffffffffffffffffffffffffffffffffff82169050919050565b60006101d6826101ab565b9050919050565b6101e6816101cb565b82525050565b600060208201905061020160008301846101dd565b92915050565b600082825260208201905092915050565b7f63616e6e6f74206265206e65676174697665206e756d62657200000000000000600082015250565b600061024e601983610207565b915061025982610218565b602082019050919050565b6000602082019050818103600083015261027d81610241565b9050919050565b7f4e487b7100000000000000000000000000000000000000000000000000000000600052601160045260246000fd5b60006102be82610177565b9150600082036102d1576102d0610284565b5b600182039050919050565b60006102e782610177565b91507fffffffffffffffffffffffffffffffffffffffffffffffffffffffffffffffff820361031957610318610284565b5b60018201905091905056fea264697066735822122065902982064625aa4165225aea332bd56bfbade24dd30aa35d1a1a0107fda6ae64736f6c63430008140033",
  "linkReferences": {},
  "deployedLinkReferences": {}
}